{
  "_format": "hh-sol-artifact-1",
  "contractName": "ETHPrivacyPool",
  "sourceName": "contracts/ETHPrivacyPool.sol",
  "abi": [
    {
      "inputs": [
        {
          "internalType": "address",
          "name": "_entrypoint",
          "type": "address"
        },
        {
          "internalType": "address",
          "name": "_withdrawalVerifier",
          "type": "address"
        },
        {
          "internalType": "address",
          "name": "_ragequitVerifier",
          "type": "address"
        }
      ],
      "stateMutability": "nonpayable",
      "type": "constructor"
    },
    {
      "inputs": [],
      "name": "ContextMismatch",
      "type": "error"
    },
    {
      "inputs": [],
      "name": "IncorrectASPRoot",
      "type": "error"
    },
    {
      "inputs": [],
      "name": "InvalidCommitment",
      "type": "error"
    },
    {
      "inputs": [],
      "name": "InvalidDepositValue",
      "type": "error"
    },
    {
      "inputs": [],
      "name": "InvalidProcessooor",
      "type": "error"
    },
    {
      "inputs": [],
      "name": "InvalidProof",
      "type": "error"
    },
    {
      "inputs": [],
      "name": "InvalidTreeDepth",
      "type": "error"
    },
    {
      "inputs": [],
      "name": "OnlyEntrypoint",
      "type": "error"
    },
    {
      "inputs": [],
      "name": "OnlyOriginalDepositor",
      "type": "error"
    },
    {
      "inputs": [],
      "name": "PoolIsDead",
      "type": "error"
    },
    {
      "inputs": [],
      "name": "UnknownStateRoot",
      "type": "error"
    },
    {
      "anonymous": false,
      "inputs": [
        {
          "indexed": true,
          "internalType": "address",
          "name": "depositor",
          "type": "address"
        },
        {
          "indexed": true,
          "internalType": "uint256",
          "name": "commitment",
          "type": "uint256"
        },
        {
          "indexed": true,
          "internalType": "uint256",
          "name": "label",
          "type": "uint256"
        },
        {
          "indexed": false,
          "internalType": "uint256",
          "name": "value",
          "type": "uint256"
        },
        {
          "indexed": false,
          "internalType": "uint256",
          "name": "precommitmentHash",
          "type": "uint256"
        }
      ],
      "name": "Deposited",
      "type": "event"
    },
    {
      "anonymous": false,
      "inputs": [],
      "name": "PoolDied",
      "type": "event"
    },
    {
      "anonymous": false,
      "inputs": [
        {
          "indexed": true,
          "internalType": "address",
          "name": "ragequitter",
          "type": "address"
        },
        {
          "indexed": false,
          "internalType": "uint256",
          "name": "commitmentHash",
          "type": "uint256"
        },
        {
          "indexed": false,
          "internalType": "uint256",
          "name": "label",
          "type": "uint256"
        },
        {
          "indexed": false,
          "internalType": "uint256",
          "name": "value",
          "type": "uint256"
        }
      ],
      "name": "Ragequit",
      "type": "event"
    },
    {
      "anonymous": false,
      "inputs": [
        {
          "indexed": true,
          "internalType": "address",
          "name": "processooor",
          "type": "address"
        },
        {
          "indexed": false,
          "internalType": "uint256",
          "name": "value",
          "type": "uint256"
        },
        {
          "indexed": false,
          "internalType": "uint256",
          "name": "nullifierHash",
          "type": "uint256"
        },
        {
          "indexed": false,
          "internalType": "uint256",
          "name": "newCommitmentHash",
          "type": "uint256"
        }
      ],
      "name": "Withdrawn",
      "type": "event"
    },
    {
      "inputs": [],
      "name": "ASSET",
      "outputs": [
        {
          "internalType": "address",
          "name": "",
          "type": "address"
        }
      ],
      "stateMutability": "view",
      "type": "function"
    },
    {
      "inputs": [],
      "name": "ENTRYPOINT",
      "outputs": [
        {
          "internalType": "address",
          "name": "",
          "type": "address"
        }
      ],
      "stateMutability": "view",
      "type": "function"
    },
    {
      "inputs": [],
      "name": "MAX_TREE_DEPTH",
      "outputs": [
        {
          "internalType": "uint256",
          "name": "",
          "type": "uint256"
        }
      ],
      "stateMutability": "view",
      "type": "function"
    },
    {
      "inputs": [],
      "name": "RAGEQUIT_VERIFIER",
      "outputs": [
        {
          "internalType": "address",
          "name": "",
          "type": "address"
        }
      ],
      "stateMutability": "view",
      "type": "function"
    },
    {
      "inputs": [],
      "name": "SCOPE",
      "outputs": [
        {
          "internalType": "bytes32",
          "name": "",
          "type": "bytes32"
        }
      ],
      "stateMutability": "view",
      "type": "function"
    },
    {
      "inputs": [],
      "name": "WITHDRAWAL_VERIFIER",
      "outputs": [
        {
          "internalType": "address",
          "name": "",
          "type": "address"
        }
      ],
      "stateMutability": "view",
      "type": "function"
    },
    {
      "inputs": [
        {
          "internalType": "uint256",
          "name": "",
          "type": "uint256"
        }
      ],
      "name": "commitments",
      "outputs": [
        {
          "internalType": "bool",
          "name": "",
          "type": "bool"
        }
      ],
      "stateMutability": "view",
      "type": "function"
    },
    {
      "inputs": [],
      "name": "dead",
      "outputs": [
        {
          "internalType": "bool",
          "name": "",
          "type": "bool"
        }
      ],
      "stateMutability": "view",
      "type": "function"
    },
    {
      "inputs": [
        {
          "internalType": "address",
          "name": "_depositor",
          "type": "address"
        },
        {
          "internalType": "uint256",
          "name": "_value",
          "type": "uint256"
        },
        {
          "internalType": "uint256",
          "name": "_precommitmentHash",
          "type": "uint256"
        }
      ],
      "name": "deposit",
      "outputs": [
        {
          "internalType": "uint256",
          "name": "_commitment",
          "type": "uint256"
        }
      ],
      "stateMutability": "payable",
      "type": "function"
    },
    {
      "inputs": [
        {
          "internalType": "uint256",
          "name": "",
          "type": "uint256"
        }
      ],
      "name": "depositors",
      "outputs": [
        {
          "internalType": "address",
          "name": "",
          "type": "address"
        }
      ],
      "stateMutability": "view",
      "type": "function"
    },
    {
      "inputs": [],
      "name": "nonce",
      "outputs": [
        {
          "internalType": "uint256",
          "name": "",
          "type": "uint256"
        }
      ],
      "stateMutability": "view",
      "type": "function"
    },
    {
      "inputs": [
        {
          "internalType": "uint256",
          "name": "",
          "type": "uint256"
        }
      ],
      "name": "nullifiers",
      "outputs": [
        {
          "internalType": "bool",
          "name": "",
          "type": "bool"
        }
      ],
      "stateMutability": "view",
      "type": "function"
    },
    {
      "inputs": [
        {
          "components": [
            {
              "internalType": "uint256[2]",
              "name": "pA",
              "type": "uint256[2]"
            },
            {
              "internalType": "uint256[2][2]",
              "name": "pB",
              "type": "uint256[2][2]"
            },
            {
              "internalType": "uint256[2]",
              "name": "pC",
              "type": "uint256[2]"
            },
            {
              "internalType": "uint256[]",
              "name": "pubSignals",
              "type": "uint256[]"
            }
          ],
          "internalType": "struct ProofLib.RagequitProof",
          "name": "_proof",
          "type": "tuple"
        }
      ],
      "name": "ragequit",
      "outputs": [],
      "stateMutability": "nonpayable",
      "type": "function"
    },
    {
      "inputs": [
        {
          "internalType": "uint256",
          "name": "",
          "type": "uint256"
        }
      ],
      "name": "stateRoots",
      "outputs": [
        {
          "internalType": "bool",
          "name": "",
          "type": "bool"
        }
      ],
      "stateMutability": "view",
      "type": "function"
    },
    {
      "inputs": [],
      "name": "windDown",
      "outputs": [],
      "stateMutability": "nonpayable",
      "type": "function"
    },
    {
      "inputs": [
        {
          "components": [
            {
              "internalType": "address",
              "name": "processooor",
              "type": "address"
            }
          ],
          "internalType": "struct IPrivacyPool.Withdrawal",
          "name": "_withdrawal",
          "type": "tuple"
        },
        {
          "components": [
            {
              "internalType": "uint256[2]",
              "name": "pA",
              "type": "uint256[2]"
            },
            {
              "internalType": "uint256[2][2]",
              "name": "pB",
              "type": "uint256[2][2]"
            },
            {
              "internalType": "uint256[2]",
              "name": "pC",
              "type": "uint256[2]"
            },
            {
              "internalType": "uint256[]",
              "name": "pubSignals",
              "type": "uint256[]"
            }
          ],
          "internalType": "struct ProofLib.WithdrawProof",
          "name": "_proof",
          "type": "tuple"
        }
      ],
      "name": "withdraw",
      "outputs": [],
      "stateMutability": "nonpayable",
      "type": "function"
    },
    {
      "stateMutability": "payable",
      "type": "receive"
    }
  ],
  "bytecode": "0x61012060405234801561001157600080fd5b506040516114a73803806114a7833981016040819052610030916100c4565b600060e08190526001600160a01b0384811660805292831660a052911660c052604080516a141c9a5d9858de541bdbdb60aa1b602082810191909152602b82019390935260609390931b6001600160601b031916603f8401528051808403603301815260539093019052815191012061010052610107565b80516001600160a01b03811681146100bf57600080fd5b919050565b6000806000606084860312156100d957600080fd5b6100e2846100a8565b92506100f0602085016100a8565b91506100fe604085016100a8565b90509250925092565b60805160a05160c05160e0516101005161132b61017c6000396000818161015d0152818161047b01526105f8015260006101bb0152600081816102e6015261095101526000818161023701526107ab015260008181610365015281816103c4015281816107020152610ad0015261132b6000f3fe6080604052600436106100f75760003560e01c8063affed0e01161008a578063e38df5f011610059578063e38df5f014610308578063e4b2fb791461031d578063e8eb3cc614610353578063f4cac30d1461038757600080fd5b8063affed0e014610279578063b85c51451461028f578063d21e82ab146102a4578063da662925146102d457600080fd5b80634800d97f116100c65780634800d97f146101a957806349ce8997146101f55780638735eb2b14610225578063a4cf2ec41461025957600080fd5b80630efe6a8b146101035780632576578c1461012957806333d092001461014b57806336cf7c871461017f57600080fd5b366100fe57005b600080fd5b610116610111366004610e53565b6103b7565b6040519081526020015b60405180910390f35b34801561013557600080fd5b50610149610144366004611091565b61059c565b005b34801561015757600080fd5b506101167f000000000000000000000000000000000000000000000000000000000000000081565b34801561018b57600080fd5b506000546101999060ff1681565b6040519015158152602001610120565b3480156101b557600080fd5b506101dd7f000000000000000000000000000000000000000000000000000000000000000081565b6040516001600160a01b039091168152602001610120565b34801561020157600080fd5b50610199610210366004611117565b60036020526000908152604090205460ff1681565b34801561023157600080fd5b506101dd7f000000000000000000000000000000000000000000000000000000000000000081565b34801561026557600080fd5b50610149610274366004611130565b61090a565b34801561028557600080fd5b5061011660015481565b34801561029b57600080fd5b50610149610ac5565b3480156102b057600080fd5b506101996102bf366004611117565b60046020526000908152604090205460ff1681565b3480156102e057600080fd5b506101dd7f000000000000000000000000000000000000000000000000000000000000000081565b34801561031457600080fd5b50610116602081565b34801561032957600080fd5b506101dd610338366004611117565b6002602052600090815260409020546001600160a01b031681565b34801561035f57600080fd5b506101dd7f000000000000000000000000000000000000000000000000000000000000000081565b34801561039357600080fd5b506101996103a2366004611117565b60056020526000908152604090205460ff1681565b6000336001600160a01b037f00000000000000000000000000000000000000000000000000000000000000001614610402576040516301048f7b60e71b815260040160405180910390fd5b60005460ff16156104265760405163924b372760e01b815260040160405180910390fd5b6fffffffffffffffffffffffffffffffff83106104565760405163214121f160e11b815260040160405180910390fd5b60007f30644e72e131a029b85045b68181585d2833e84879b9709143e1f593f00000017f00000000000000000000000000000000000000000000000000000000000000006001600081546104a99061116d565b91829055506040805160208101939093528201526060016040516020818303038152906040528051906020012060001c6104e39190611194565b60008181526002602090815260409182902080546001600160a01b0319166001600160a01b038a16179055815160608101835287815290810183905290810185905290915061053190610b68565b915061053c82610bdb565b6105463385610c26565b8082866001600160a01b03167fe3b53cd1a44fbf11535e145d80b8ef1ed6d57a73bf5daa7e939b6b01657d6549878760405161058c929190918252602082015260400190565b60405180910390a4509392505050565b818181600001516001600160a01b0316336001600160a01b0316146105d457604051631a7c48e560e01b815260040160405180910390fd5b7f30644e72e131a029b85045b68181585d2833e84879b9709143e1f593f0000001827f000000000000000000000000000000000000000000000000000000000000000060405160200161063b92919091516001600160a01b03168252602082015260400190565b6040516020818303038152906040528051906020012060001c61065e9190611194565b61066782610c77565b1461068557604051630ef6daeb60e41b815260040160405180910390fd5b602061069082610c9f565b11806106a4575060206106a282610cb8565b115b156106c25760405163610e647160e11b815260040160405180910390fd5b6106e36106ce82610cd1565b60009081526005602052604090205460ff1690565b61070057604051633f4f4f1360e21b815260040160405180910390fd5b7f00000000000000000000000000000000000000000000000000000000000000006001600160a01b031663d7b0fef16040518163ffffffff1660e01b8152600401602060405180830381865afa15801561075e573d6000803e3d6000fd5b505050506040513d601f19601f8201168201806040525081019061078291906111b6565b61078b82610cea565b146107a9576040516329a9e09160e21b815260040160405180910390fd5b7f00000000000000000000000000000000000000000000000000000000000000006001600160a01b031663c32e370e84600001518560200151866040015187606001516040518563ffffffff1660e01b815260040161080b9493929190611234565b602060405180830381865afa158015610828573d6000803e3d6000fd5b505050506040513d601f19601f8201168201806040525081019061084c91906112b6565b610869576040516309bde33960e01b815260040160405180910390fd5b61087a61087584610d03565b610d1c565b61088b61088684610d67565b610bdb565b835161089f9061089a85610d80565b610d99565b83516001600160a01b03167f75e161b3e824b114fc1a33274bd7091918dd4e639cede50b78b15a4eea956a216108d485610d80565b6108dd86610d03565b6108e687610d67565b6040805193845260208401929092529082015260600160405180910390a250505050565b600061091582610d80565b6000818152600260205260409020549091506001600160a01b0316331461094f576040516301f71c4f60e31b815260040160405180910390fd5b7f00000000000000000000000000000000000000000000000000000000000000006001600160a01b031663c32e370e83600001518460200151856040015186606001516040518563ffffffff1660e01b81526004016109b19493929190611234565b602060405180830381865afa1580156109ce573d6000803e3d6000fd5b505050506040513d601f19601f820116820180604052508101906109f291906112b6565b610a0f576040516309bde33960e01b815260040160405180910390fd5b610a30610a1b83610cd1565b60009081526003602052604090205460ff1690565b610a4d57604051636033c4fd60e11b815260040160405180910390fd5b610a5961087583610cea565b610a663361089a84610c9f565b337fd2b3e868ae101106371f2bd93abc8d5a4de488b9fe47ed122c23625aa7172f13610a9184610cd1565b610a9a85610d80565b610aa386610c9f565b6040805193845260208401929092529082015260600160405180910390a25050565b336001600160a01b037f00000000000000000000000000000000000000000000000000000000000000001614610b0e576040516301048f7b60e71b815260040160405180910390fd5b60005460ff1615610b325760405163924b372760e01b815260040160405180910390fd5b6000805460ff191660011781556040517ff9dc79d7254099fdf1f86b15c91deac3bf8883e4f340ebef6e3c6b870cc315b39190a1565b805160208083015160408085015181519384019490945282015260608101919091526000907f30644e72e131a029b85045b68181585d2833e84879b9709143e1f593f0000001906080016040516020818303038152906040528051906020012060001c610bd59190611194565b92915050565b60008181526003602052604090205460ff1615610c0b57604051636033c4fd60e11b815260040160405180910390fd5b6000908152600360205260409020805460ff19166001179055565b80341015610c735760405162461bcd60e51b8152602060048201526015602482015274125b9cdd59999a58da595b9d08115512081cd95b9d605a1b60448201526064015b60405180910390fd5b5050565b60008160600151600581518110610c9057610c906112df565b60200260200101519050919050565b60008160600151600281518110610c9057610c906112df565b60008160600151600481518110610c9057610c906112df565b60008160600151600181518110610c9057610c906112df565b60008160600151600381518110610c9057610c906112df565b60008160600151600681518110610c9057610c906112df565b60008181526004602052604090205460ff1615610d4c57604051636033c4fd60e11b815260040160405180910390fd5b6000908152600460205260409020805460ff19166001179055565b60008160600151600781518110610c9057610c906112df565b60008160600151600081518110610c9057610c906112df565b6000826001600160a01b03168260405160006040518083038185875af1925050503d8060008114610de6576040519150601f19603f3d011682016040523d82523d6000602084013e610deb565b606091505b5050905080610e325760405162461bcd60e51b8152602060048201526013602482015272115512081d1c985b9cd9995c8819985a5b1959606a1b6044820152606401610c6a565b505050565b80356001600160a01b0381168114610e4e57600080fd5b919050565b600080600060608486031215610e6857600080fd5b610e7184610e37565b95602085013595506040909401359392505050565b634e487b7160e01b600052604160045260246000fd5b6040516080810167ffffffffffffffff81118282101715610ebf57610ebf610e86565b60405290565b604051601f8201601f1916810167ffffffffffffffff81118282101715610eee57610eee610e86565b604052919050565b600082601f830112610f0757600080fd5b610f116040610ec5565b806040840185811115610f2357600080fd5b845b81811015610f3d578035845260209384019301610f25565b509095945050505050565b600082601f830112610f5957600080fd5b813567ffffffffffffffff811115610f7357610f73610e86565b8060051b610f8360208201610ec5565b91825260208185018101929081019086841115610f9f57600080fd5b6020860192505b83831015610fc1578235825260209283019290910190610fa6565b9695505050505050565b60006101208284031215610fde57600080fd5b610fe6610e9c565b9050610ff28383610ef6565b815282605f83011261100357600080fd5b604061100e81610ec5565b8060c085018681111561102057600080fd5b8386015b81811015611045576110368882610ef6565b84526020909301928401611024565b508160208601526110568782610ef6565b848601525050505061010082013567ffffffffffffffff81111561107957600080fd5b61108584828501610f48565b60608301525092915050565b60008082840360408112156110a557600080fd5b60208112156110b357600080fd5b506040516020810167ffffffffffffffff811182821017156110d7576110d7610e86565b6040526110e384610e37565b81529150602083013567ffffffffffffffff81111561110157600080fd5b61110d85828601610fcb565b9150509250929050565b60006020828403121561112957600080fd5b5035919050565b60006020828403121561114257600080fd5b813567ffffffffffffffff81111561115957600080fd5b61116584828501610fcb565b949350505050565b60006001820161118d57634e487b7160e01b600052601160045260246000fd5b5060010190565b6000826111b157634e487b7160e01b600052601260045260246000fd5b500690565b6000602082840312156111c857600080fd5b5051919050565b8060005b60028110156111f25781518452602093840193909101906001016111d3565b50505050565b600081518084526020840193506020830160005b8281101561122a57815186526020958601959091019060010161120c565b5093949350505050565b61123e81866111cf565b6000604082018560005b600281101561128f5781518360005b6002811015611276578251825260209283019290910190600101611257565b5050506040929092019160209190910190600101611248565b50505061129f60c08301856111cf565b610120610100830152610fc16101208301846111f8565b6000602082840312156112c857600080fd5b815180151581146112d857600080fd5b9392505050565b634e487b7160e01b600052603260045260246000fdfea2646970667358221220501bb943c0db734da749ac84a88181ecb01d576321b42d120cd3e0c3d83f8ac264736f6c634300081c0033",
  "linkReferences": {},
  "deployedLinkReferences": {}
}