{"contracts/ETHPrivacyPool.sol":{"ETHPrivacyPool":{"abi":[{"inputs":[{"internalType":"address","name":"_entrypoint","type":"address"},{"internalType":"address","name":"_withdrawalVerifier","type":"address"},{"internalType":"address","name":"_ragequitVerifier","type":"address"}],"stateMutability":"nonpayable","type":"constructor"},{"inputs":[],"name":"ContextMismatch","type":"error"},{"inputs":[],"name":"IncorrectASPRoot","type":"error"},{"inputs":[],"name":"InvalidCommitment","type":"error"},{"inputs":[],"name":"InvalidDepositValue","type":"error"},{"inputs":[],"name":"InvalidProcessooor","type":"error"},{"inputs":[],"name":"InvalidProof","type":"error"},{"inputs":[],"name":"InvalidTreeDepth","type":"error"},{"inputs":[],"name":"OnlyEntrypoint","type":"error"},{"inputs":[],"name":"OnlyOriginalDepositor","type":"error"},{"inputs":[],"name":"PoolIsDead","type":"error"},{"inputs":[],"name":"UnknownStateRoot","type":"error"},{"anonymous":false,"inputs":[{"indexed":true,"internalType":"address","name":"depositor","type":"address"},{"indexed":true,"internalType":"uint256","name":"commitment","type":"uint256"},{"indexed":true,"internalType":"uint256","name":"label","type":"uint256"},{"indexed":false,"internalType":"uint256","name":"value","type":"uint256"},{"indexed":false,"internalType":"uint256","name":"precommitmentHash","type":"uint256"}],"name":"Deposited","type":"event"},{"anonymous":false,"inputs":[],"name":"PoolDied","type":"event"},{"anonymous":false,"inputs":[{"indexed":true,"internalType":"address","name":"ragequitter","type":"address"},{"indexed":false,"internalType":"uint256","name":"commitmentHash","type":"uint256"},{"indexed":false,"internalType":"uint256","name":"label","type":"uint256"},{"indexed":false,"internalType":"uint256","name":"value","type":"uint256"}],"name":"Ragequit","type":"event"},{"anonymous":false,"inputs":[{"indexed":true,"internalType":"address","name":"processooor","type":"address"},{"indexed":false,"internalType":"uint256","name":"value","type":"uint256"},{"indexed":false,"internalType":"uint256","name":"nullifierHash","type":"uint256"},{"indexed":false,"internalType":"uint256","name":"newCommitmentHash","type":"uint256"}],"name":"Withdrawn","type":"event"},{"inputs":[],"name":"ASSET","outputs":[{"internalType":"address","name":"","type":"address"}],"stateMutability":"view","type":"function"},{"inputs":[],"name":"ENTRYPOINT","outputs":[{"internalType":"address","name":"","type":"address"}],"stateMutability":"view","type":"function"},{"inputs":[],"name":"MAX_TREE_DEPTH","outputs":[{"internalType":"uint256","name":"","type":"uint256"}],"stateMutability":"view","type":"function"},{"inputs":[],"name":"RAGEQUIT_VERIFIER","outputs":[{"internalType":"address","name":"","type":"address"}],"stateMutability":"view","type":"function"},{"inputs":[],"name":"SCOPE","outputs":[{"internalType":"bytes32","name":"","type":"bytes32"}],"stateMutability":"view","type":"function"},{"inputs":[],"name":"WITHDRAWAL_VERIFIER","outputs":[{"internalType":"address","name":"","type":"address"}],"stateMutability":"view","type":"function"},{"inputs":[{"internalType":"uint256","name":"","type":"uint256"}],"name":"commitments","outputs":[{"internalType":"bool","name":"","type":"bool"}],"stateMutability":"view","type":"function"},{"inputs":[],"name":"dead","outputs":[{"internalType":"bool","name":"","type":"bool"}],"stateMutability":"view","type":"function"},{"inputs":[{"internalType":"address","name":"_depositor","type":"address"},{"internalType":"uint256","name":"_value","type":"uint256"},{"internalType":"uint256","name":"_precommitmentHash","type":"uint256"}],"name":"deposit","outputs":[{"internalType":"uint256","name":"_commitment","type":"uint256"}],"stateMutability":"payable","type":"function"},{"inputs":[{"internalType":"uint256","name":"","type":"uint256"}],"name":"depositors","outputs":[{"internalType":"address","name":"","type":"address"}],"stateMutability":"view","type":"function"},{"inputs":[],"name":"nonce","outputs":[{"internalType":"uint256","name":"","type":"uint256"}],"stateMutability":"view","type":"function"},{"inputs":[{"internalType":"uint256","name":"","type":"uint256"}],"name":"nullifiers","outputs":[{"internalType":"bool","name":"","type":"bool"}],"stateMutability":"view","type":"function"},{"inputs":[{"components":[{"internalType":"uint256[2]","name":"pA","type":"uint256[2]"},{"internalType":"uint256[2][2]","name":"pB","type":"uint256[2][2]"},{"internalType":"uint256[2]","name":"pC","type":"uint256[2]"},{"internalType":"uint256[]","name":"pubSignals","type":"uint256[]"}],"internalType":"struct ProofLib.RagequitProof","name":"_proof","type":"tuple"}],"name":"ragequit","outputs":[],"stateMutability":"nonpayable","type":"function"},{"inputs":[{"internalType":"uint256","name":"","type":"uint256"}],"name":"stateRoots","outputs":[{"internalType":"bool","name":"","type":"bool"}],"stateMutability":"view","type":"function"},{"inputs":[],"name":"windDown","outputs":[],"stateMutability":"nonpayable","type":"function"},{"inputs":[{"components":[{"internalType":"address","name":"processooor","type":"address"}],"internalType":"struct IPrivacyPool.Withdrawal","name":"_withdrawal","type":"tuple"},{"components":[{"internalType":"uint256[2]","name":"pA","type":"uint256[2]"},{"internalType":"uint256[2][2]","name":"pB","type":"uint256[2][2]"},{"internalType":"uint256[2]","name":"pC","type":"uint256[2]"},{"internalType":"uint256[]","name":"pubSignals","type":"uint256[]"}],"internalType":"struct ProofLib.WithdrawProof","name":"_proof","type":"tuple"}],"name":"withdraw","outputs":[],"stateMutability":"nonpayable","type":"function"},{"stateMutability":"payable","type":"receive"}],"evm":{"bytecode":{"linkReferences":{},"object":"61012060405234801561001157600080fd5b506040516114a73803806114a7833981016040819052610030916100c4565b600060e08190526001600160a01b0384811660805292831660a052911660c052604080516a141c9a5d9858de541bdbdb60aa1b602082810191909152602b82019390935260609390931b6001600160601b031916603f8401528051808403603301815260539093019052815191012061010052610107565b80516001600160a01b03811681146100bf57600080fd5b919050565b6000806000606084860312156100d957600080fd5b6100e2846100a8565b92506100f0602085016100a8565b91506100fe604085016100a8565b90509250925092565b60805160a05160c05160e0516101005161132b61017c6000396000818161015d0152818161047b01526105f8015260006101bb0152600081816102e6015261095101526000818161023701526107ab015260008181610365015281816103c4015281816107020152610ad0015261132b6000f3fe6080604052600436106100f75760003560e01c8063affed0e01161008a578063e38df5f011610059578063e38df5f014610308578063e4b2fb791461031d578063e8eb3cc614610353578063f4cac30d1461038757600080fd5b8063affed0e014610279578063b85c51451461028f578063d21e82ab146102a4578063da662925146102d457600080fd5b80634800d97f116100c65780634800d97f146101a957806349ce8997146101f55780638735eb2b14610225578063a4cf2ec41461025957600080fd5b80630efe6a8b146101035780632576578c1461012957806333d092001461014b57806336cf7c871461017f57600080fd5b366100fe57005b600080fd5b610116610111366004610e53565b6103b7565b6040519081526020015b60405180910390f35b34801561013557600080fd5b50610149610144366004611091565b61059c565b005b34801561015757600080fd5b506101167f000000000000000000000000000000000000000000000000000000000000000081565b34801561018b57600080fd5b506000546101999060ff1681565b6040519015158152602001610120565b3480156101b557600080fd5b506101dd7f000000000000000000000000000000000000000000000000000000000000000081565b6040516001600160a01b039091168152602001610120565b34801561020157600080fd5b50610199610210366004611117565b60036020526000908152604090205460ff1681565b34801561023157600080fd5b506101dd7f000000000000000000000000000000000000000000000000000000000000000081565b34801561026557600080fd5b50610149610274366004611130565b61090a565b34801561028557600080fd5b5061011660015481565b34801561029b57600080fd5b50610149610ac5565b3480156102b057600080fd5b506101996102bf366004611117565b60046020526000908152604090205460ff1681565b3480156102e057600080fd5b506101dd7f000000000000000000000000000000000000000000000000000000000000000081565b34801561031457600080fd5b50610116602081565b34801561032957600080fd5b506101dd610338366004611117565b6002602052600090815260409020546001600160a01b031681565b34801561035f57600080fd5b506101dd7f000000000000000000000000000000000000000000000000000000000000000081565b34801561039357600080fd5b506101996103a2366004611117565b60056020526000908152604090205460ff1681565b6000336001600160a01b037f00000000000000000000000000000000000000000000000000000000000000001614610402576040516301048f7b60e71b815260040160405180910390fd5b60005460ff16156104265760405163924b372760e01b815260040160405180910390fd5b6fffffffffffffffffffffffffffffffff83106104565760405163214121f160e11b815260040160405180910390fd5b60007f30644e72e131a029b85045b68181585d2833e84879b9709143e1f593f00000017f00000000000000000000000000000000000000000000000000000000000000006001600081546104a99061116d565b91829055506040805160208101939093528201526060016040516020818303038152906040528051906020012060001c6104e39190611194565b60008181526002602090815260409182902080546001600160a01b0319166001600160a01b038a16179055815160608101835287815290810183905290810185905290915061053190610b68565b915061053c82610bdb565b6105463385610c26565b8082866001600160a01b03167fe3b53cd1a44fbf11535e145d80b8ef1ed6d57a73bf5daa7e939b6b01657d6549878760405161058c929190918252602082015260400190565b60405180910390a4509392505050565b818181600001516001600160a01b0316336001600160a01b0316146105d457604051631a7c48e560e01b815260040160405180910390fd5b7f30644e72e131a029b85045b68181585d2833e84879b9709143e1f593f0000001827f000000000000000000000000000000000000000000000000000000000000000060405160200161063b92919091516001600160a01b03168252602082015260400190565b6040516020818303038152906040528051906020012060001c61065e9190611194565b61066782610c77565b1461068557604051630ef6daeb60e41b815260040160405180910390fd5b602061069082610c9f565b11806106a4575060206106a282610cb8565b115b156106c25760405163610e647160e11b815260040160405180910390fd5b6106e36106ce82610cd1565b60009081526005602052604090205460ff1690565b61070057604051633f4f4f1360e21b815260040160405180910390fd5b7f00000000000000000000000000000000000000000000000000000000000000006001600160a01b031663d7b0fef16040518163ffffffff1660e01b8152600401602060405180830381865afa15801561075e573d6000803e3d6000fd5b505050506040513d601f19601f8201168201806040525081019061078291906111b6565b61078b82610cea565b146107a9576040516329a9e09160e21b815260040160405180910390fd5b7f00000000000000000000000000000000000000000000000000000000000000006001600160a01b031663c32e370e84600001518560200151866040015187606001516040518563ffffffff1660e01b815260040161080b9493929190611234565b602060405180830381865afa158015610828573d6000803e3d6000fd5b505050506040513d601f19601f8201168201806040525081019061084c91906112b6565b610869576040516309bde33960e01b815260040160405180910390fd5b61087a61087584610d03565b610d1c565b61088b61088684610d67565b610bdb565b835161089f9061089a85610d80565b610d99565b83516001600160a01b03167f75e161b3e824b114fc1a33274bd7091918dd4e639cede50b78b15a4eea956a216108d485610d80565b6108dd86610d03565b6108e687610d67565b6040805193845260208401929092529082015260600160405180910390a250505050565b600061091582610d80565b6000818152600260205260409020549091506001600160a01b0316331461094f576040516301f71c4f60e31b815260040160405180910390fd5b7f00000000000000000000000000000000000000000000000000000000000000006001600160a01b031663c32e370e83600001518460200151856040015186606001516040518563ffffffff1660e01b81526004016109b19493929190611234565b602060405180830381865afa1580156109ce573d6000803e3d6000fd5b505050506040513d601f19601f820116820180604052508101906109f291906112b6565b610a0f576040516309bde33960e01b815260040160405180910390fd5b610a30610a1b83610cd1565b60009081526003602052604090205460ff1690565b610a4d57604051636033c4fd60e11b815260040160405180910390fd5b610a5961087583610cea565b610a663361089a84610c9f565b337fd2b3e868ae101106371f2bd93abc8d5a4de488b9fe47ed122c23625aa7172f13610a9184610cd1565b610a9a85610d80565b610aa386610c9f565b6040805193845260208401929092529082015260600160405180910390a25050565b336001600160a01b037f00000000000000000000000000000000000000000000000000000000000000001614610b0e576040516301048f7b60e71b815260040160405180910390fd5b60005460ff1615610b325760405163924b372760e01b815260040160405180910390fd5b6000805460ff191660011781556040517ff9dc79d7254099fdf1f86b15c91deac3bf8883e4f340ebef6e3c6b870cc315b39190a1565b805160208083015160408085015181519384019490945282015260608101919091526000907f30644e72e131a029b85045b68181585d2833e84879b9709143e1f593f0000001906080016040516020818303038152906040528051906020012060001c610bd59190611194565b92915050565b60008181526003602052604090205460ff1615610c0b57604051636033c4fd60e11b815260040160405180910390fd5b6000908152600360205260409020805460ff19166001179055565b80341015610c735760405162461bcd60e51b8152602060048201526015602482015274125b9cdd59999a58da595b9d08115512081cd95b9d605a1b60448201526064015b60405180910390fd5b5050565b60008160600151600581518110610c9057610c906112df565b60200260200101519050919050565b60008160600151600281518110610c9057610c906112df565b60008160600151600481518110610c9057610c906112df565b60008160600151600181518110610c9057610c906112df565b60008160600151600381518110610c9057610c906112df565b60008160600151600681518110610c9057610c906112df565b60008181526004602052604090205460ff1615610d4c57604051636033c4fd60e11b815260040160405180910390fd5b6000908152600460205260409020805460ff19166001179055565b60008160600151600781518110610c9057610c906112df565b60008160600151600081518110610c9057610c906112df565b6000826001600160a01b03168260405160006040518083038185875af1925050503d8060008114610de6576040519150601f19603f3d011682016040523d82523d6000602084013e610deb565b606091505b5050905080610e325760405162461bcd60e51b8152602060048201526013602482015272115512081d1c985b9cd9995c8819985a5b1959606a1b6044820152606401610c6a565b505050565b80356001600160a01b0381168114610e4e57600080fd5b919050565b600080600060608486031215610e6857600080fd5b610e7184610e37565b95602085013595506040909401359392505050565b634e487b7160e01b600052604160045260246000fd5b6040516080810167ffffffffffffffff81118282101715610ebf57610ebf610e86565b60405290565b604051601f8201601f1916810167ffffffffffffffff81118282101715610eee57610eee610e86565b604052919050565b600082601f830112610f0757600080fd5b610f116040610ec5565b806040840185811115610f2357600080fd5b845b81811015610f3d578035845260209384019301610f25565b509095945050505050565b600082601f830112610f5957600080fd5b813567ffffffffffffffff811115610f7357610f73610e86565b8060051b610f8360208201610ec5565b91825260208185018101929081019086841115610f9f57600080fd5b6020860192505b83831015610fc1578235825260209283019290910190610fa6565b9695505050505050565b60006101208284031215610fde57600080fd5b610fe6610e9c565b9050610ff28383610ef6565b815282605f83011261100357600080fd5b604061100e81610ec5565b8060c085018681111561102057600080fd5b8386015b81811015611045576110368882610ef6565b84526020909301928401611024565b508160208601526110568782610ef6565b848601525050505061010082013567ffffffffffffffff81111561107957600080fd5b61108584828501610f48565b60608301525092915050565b60008082840360408112156110a557600080fd5b60208112156110b357600080fd5b506040516020810167ffffffffffffffff811182821017156110d7576110d7610e86565b6040526110e384610e37565b81529150602083013567ffffffffffffffff81111561110157600080fd5b61110d85828601610fcb565b9150509250929050565b60006020828403121561112957600080fd5b5035919050565b60006020828403121561114257600080fd5b813567ffffffffffffffff81111561115957600080fd5b61116584828501610fcb565b949350505050565b60006001820161118d57634e487b7160e01b600052601160045260246000fd5b5060010190565b6000826111b157634e487b7160e01b600052601260045260246000fd5b500690565b6000602082840312156111c857600080fd5b5051919050565b8060005b60028110156111f25781518452602093840193909101906001016111d3565b50505050565b600081518084526020840193506020830160005b8281101561122a57815186526020958601959091019060010161120c565b5093949350505050565b61123e81866111cf565b6000604082018560005b600281101561128f5781518360005b6002811015611276578251825260209283019290910190600101611257565b5050506040929092019160209190910190600101611248565b50505061129f60c08301856111cf565b610120610100830152610fc16101208301846111f8565b6000602082840312156112c857600080fd5b815180151581146112d857600080fd5b9392505050565b634e487b7160e01b600052603260045260246000fdfea2646970667358221220501bb943c0db734da749ac84a88181ecb01d576321b42d120cd3e0c3d83f8ac264736f6c634300081c0033","opcodes":"PUSH2 0x120 PUSH1 0x40 MSTORE CALLVALUE DUP1 ISZERO PUSH2 0x11 JUMPI PUSH1 0x0 DUP1 REVERT JUMPDEST POP PUSH1 0x40 MLOAD PUSH2 0x14A7 CODESIZE SUB DUP1 PUSH2 0x14A7 DUP4 CODECOPY DUP2 ADD PUSH1 0x40 DUP2 SWAP1 MSTORE PUSH2 0x30 SWAP2 PUSH2 0xC4 JUMP JUMPDEST PUSH1 0x0 PUSH1 0xE0 DUP2 SWAP1 MSTORE PUSH1 0x1 PUSH1 0x1 PUSH1 0xA0 SHL SUB DUP5 DUP2 AND PUSH1 0x80 MSTORE SWAP3 DUP4 AND PUSH1 0xA0 MSTORE SWAP2 AND PUSH1 0xC0 MSTORE PUSH1 0x40 DUP1 MLOAD PUSH11 0x141C9A5D9858DE541BDBDB PUSH1 0xAA SHL PUSH1 0x20 DUP3 DUP2 ADD SWAP2 SWAP1 SWAP2 MSTORE PUSH1 0x2B DUP3 ADD SWAP4 SWAP1 SWAP4 MSTORE PUSH1 0x60 SWAP4 SWAP1 SWAP4 SHL PUSH1 0x1 PUSH1 0x1 PUSH1 0x60 SHL SUB NOT AND PUSH1 0x3F DUP5 ADD MSTORE DUP1 MLOAD DUP1 DUP5 SUB PUSH1 0x33 ADD DUP2 MSTORE PUSH1 0x53 SWAP1 SWAP4 ADD SWAP1 MSTORE DUP2 MLOAD SWAP2 ADD KECCAK256 PUSH2 0x100 MSTORE PUSH2 0x107 JUMP JUMPDEST DUP1 MLOAD PUSH1 0x1 PUSH1 0x1 PUSH1 0xA0 SHL SUB DUP2 AND DUP2 EQ PUSH2 0xBF JUMPI PUSH1 0x0 DUP1 REVERT JUMPDEST SWAP2 SWAP1 POP JUMP JUMPDEST PUSH1 0x0 DUP1 PUSH1 0x0 PUSH1 0x60 DUP5 DUP7 SUB SLT ISZERO PUSH2 0xD9 JUMPI PUSH1 0x0 DUP1 REVERT JUMPDEST PUSH2 0xE2 DUP5 PUSH2 0xA8 JUMP JUMPDEST SWAP3 POP PUSH2 0xF0 PUSH1 0x20 DUP6 ADD PUSH2 0xA8 JUMP JUMPDEST SWAP2 POP PUSH2 0xFE PUSH1 0x40 DUP6 ADD PUSH2 0xA8 JUMP JUMPDEST SWAP1 POP SWAP3 POP SWAP3 POP SWAP3 JUMP JUMPDEST PUSH1 0x80 MLOAD PUSH1 0xA0 MLOAD PUSH1 0xC0 MLOAD PUSH1 0xE0 MLOAD PUSH2 0x100 MLOAD PUSH2 0x132B PUSH2 0x17C PUSH1 0x0 CODECOPY PUSH1 0x0 DUP2 DUP2 PUSH2 0x15D ADD MSTORE DUP2 DUP2 PUSH2 0x47B ADD MSTORE PUSH2 0x5F8 ADD MSTORE PUSH1 0x0 PUSH2 0x1BB ADD MSTORE PUSH1 0x0 DUP2 DUP2 PUSH2 0x2E6 ADD MSTORE PUSH2 0x951 ADD MSTORE PUSH1 0x0 DUP2 DUP2 PUSH2 0x237 ADD MSTORE PUSH2 0x7AB ADD MSTORE PUSH1 0x0 DUP2 DUP2 PUSH2 0x365 ADD MSTORE DUP2 DUP2 PUSH2 0x3C4 ADD MSTORE DUP2 DUP2 PUSH2 0x702 ADD MSTORE PUSH2 0xAD0 ADD MSTORE PUSH2 0x132B PUSH1 0x0 RETURN INVALID PUSH1 0x80 PUSH1 0x40 MSTORE PUSH1 0x4 CALLDATASIZE LT PUSH2 0xF7 JUMPI PUSH1 0x0 CALLDATALOAD PUSH1 0xE0 SHR DUP1 PUSH4 0xAFFED0E0 GT PUSH2 0x8A JUMPI DUP1 PUSH4 0xE38DF5F0 GT PUSH2 0x59 JUMPI DUP1 PUSH4 0xE38DF5F0 EQ PUSH2 0x308 JUMPI DUP1 PUSH4 0xE4B2FB79 EQ PUSH2 0x31D JUMPI DUP1 PUSH4 0xE8EB3CC6 EQ PUSH2 0x353 JUMPI DUP1 PUSH4 0xF4CAC30D EQ PUSH2 0x387 JUMPI PUSH1 0x0 DUP1 REVERT JUMPDEST DUP1 PUSH4 0xAFFED0E0 EQ PUSH2 0x279 JUMPI DUP1 PUSH4 0xB85C5145 EQ PUSH2 0x28F JUMPI DUP1 PUSH4 0xD21E82AB EQ PUSH2 0x2A4 JUMPI DUP1 PUSH4 0xDA662925 EQ PUSH2 0x2D4 JUMPI PUSH1 0x0 DUP1 REVERT JUMPDEST DUP1 PUSH4 0x4800D97F GT PUSH2 0xC6 JUMPI DUP1 PUSH4 0x4800D97F EQ PUSH2 0x1A9 JUMPI DUP1 PUSH4 0x49CE8997 EQ PUSH2 0x1F5 JUMPI DUP1 PUSH4 0x8735EB2B EQ PUSH2 0x225 JUMPI DUP1 PUSH4 0xA4CF2EC4 EQ PUSH2 0x259 JUMPI PUSH1 0x0 DUP1 REVERT JUMPDEST DUP1 PUSH4 0xEFE6A8B EQ PUSH2 0x103 JUMPI DUP1 PUSH4 0x2576578C EQ PUSH2 0x129 JUMPI DUP1 PUSH4 0x33D09200 EQ PUSH2 0x14B JUMPI DUP1 PUSH4 0x36CF7C87 EQ PUSH2 0x17F JUMPI PUSH1 0x0 DUP1 REVERT JUMPDEST CALLDATASIZE PUSH2 0xFE JUMPI STOP JUMPDEST PUSH1 0x0 DUP1 REVERT JUMPDEST PUSH2 0x116 PUSH2 0x111 CALLDATASIZE PUSH1 0x4 PUSH2 0xE53 JUMP JUMPDEST PUSH2 0x3B7 JUMP JUMPDEST PUSH1 0x40 MLOAD SWAP1 DUP2 MSTORE PUSH1 0x20 ADD JUMPDEST PUSH1 0x40 MLOAD DUP1 SWAP2 SUB SWAP1 RETURN JUMPDEST CALLVALUE DUP1 ISZERO PUSH2 0x135 JUMPI PUSH1 0x0 DUP1 REVERT JUMPDEST POP PUSH2 0x149 PUSH2 0x144 CALLDATASIZE PUSH1 0x4 PUSH2 0x1091 JUMP JUMPDEST PUSH2 0x59C JUMP JUMPDEST STOP JUMPDEST CALLVALUE DUP1 ISZERO PUSH2 0x157 JUMPI PUSH1 0x0 DUP1 REVERT JUMPDEST POP PUSH2 0x116 PUSH32 0x0 DUP2 JUMP JUMPDEST CALLVALUE DUP1 ISZERO PUSH2 0x18B JUMPI PUSH1 0x0 DUP1 REVERT JUMPDEST POP PUSH1 0x0 SLOAD PUSH2 0x199 SWAP1 PUSH1 0xFF AND DUP2 JUMP JUMPDEST PUSH1 0x40 MLOAD SWAP1 ISZERO ISZERO DUP2 MSTORE PUSH1 0x20 ADD PUSH2 0x120 JUMP JUMPDEST CALLVALUE DUP1 ISZERO PUSH2 0x1B5 JUMPI PUSH1 0x0 DUP1 REVERT JUMPDEST POP PUSH2 0x1DD PUSH32 0x0 DUP2 JUMP JUMPDEST PUSH1 0x40 MLOAD PUSH1 0x1 PUSH1 0x1 PUSH1 0xA0 SHL SUB SWAP1 SWAP2 AND DUP2 MSTORE PUSH1 0x20 ADD PUSH2 0x120 JUMP JUMPDEST CALLVALUE DUP1 ISZERO PUSH2 0x201 JUMPI PUSH1 0x0 DUP1 REVERT JUMPDEST POP PUSH2 0x199 PUSH2 0x210 CALLDATASIZE PUSH1 0x4 PUSH2 0x1117 JUMP JUMPDEST PUSH1 0x3 PUSH1 0x20 MSTORE PUSH1 0x0 SWAP1 DUP2 MSTORE PUSH1 0x40 SWAP1 KECCAK256 SLOAD PUSH1 0xFF AND DUP2 JUMP JUMPDEST CALLVALUE DUP1 ISZERO PUSH2 0x231 JUMPI PUSH1 0x0 DUP1 REVERT JUMPDEST POP PUSH2 0x1DD PUSH32 0x0 DUP2 JUMP JUMPDEST CALLVALUE DUP1 ISZERO PUSH2 0x265 JUMPI PUSH1 0x0 DUP1 REVERT JUMPDEST POP PUSH2 0x149 PUSH2 0x274 CALLDATASIZE PUSH1 0x4 PUSH2 0x1130 JUMP JUMPDEST PUSH2 0x90A JUMP JUMPDEST CALLVALUE DUP1 ISZERO PUSH2 0x285 JUMPI PUSH1 0x0 DUP1 REVERT JUMPDEST POP PUSH2 0x116 PUSH1 0x1 SLOAD DUP2 JUMP JUMPDEST CALLVALUE DUP1 ISZERO PUSH2 0x29B JUMPI PUSH1 0x0 DUP1 REVERT JUMPDEST POP PUSH2 0x149 PUSH2 0xAC5 JUMP JUMPDEST CALLVALUE DUP1 ISZERO PUSH2 0x2B0 JUMPI PUSH1 0x0 DUP1 REVERT JUMPDEST POP PUSH2 0x199 PUSH2 0x2BF CALLDATASIZE PUSH1 0x4 PUSH2 0x1117 JUMP JUMPDEST PUSH1 0x4 PUSH1 0x20 MSTORE PUSH1 0x0 SWAP1 DUP2 MSTORE PUSH1 0x40 SWAP1 KECCAK256 SLOAD PUSH1 0xFF AND DUP2 JUMP JUMPDEST CALLVALUE DUP1 ISZERO PUSH2 0x2E0 JUMPI PUSH1 0x0 DUP1 REVERT JUMPDEST POP PUSH2 0x1DD PUSH32 0x0 DUP2 JUMP JUMPDEST CALLVALUE DUP1 ISZERO PUSH2 0x314 JUMPI PUSH1 0x0 DUP1 REVERT JUMPDEST POP PUSH2 0x116 PUSH1 0x20 DUP2 JUMP JUMPDEST CALLVALUE DUP1 ISZERO PUSH2 0x329 JUMPI PUSH1 0x0 DUP1 REVERT JUMPDEST POP PUSH2 0x1DD PUSH2 0x338 CALLDATASIZE PUSH1 0x4 PUSH2 0x1117 JUMP JUMPDEST PUSH1 0x2 PUSH1 0x20 MSTORE PUSH1 0x0 SWAP1 DUP2 MSTORE PUSH1 0x40 SWAP1 KECCAK256 SLOAD PUSH1 0x1 PUSH1 0x1 PUSH1 0xA0 SHL SUB AND DUP2 JUMP JUMPDEST CALLVALUE DUP1 ISZERO PUSH2 0x35F JUMPI PUSH1 0x0 DUP1 REVERT JUMPDEST POP PUSH2 0x1DD PUSH32 0x0 DUP2 JUMP JUMPDEST CALLVALUE DUP1 ISZERO PUSH2 0x393 JUMPI PUSH1 0x0 DUP1 REVERT JUMPDEST POP PUSH2 0x199 PUSH2 0x3A2 CALLDATASIZE PUSH1 0x4 PUSH2 0x1117 JUMP JUMPDEST PUSH1 0x5 PUSH1 0x20 MSTORE PUSH1 0x0 SWAP1 DUP2 MSTORE PUSH1 0x40 SWAP1 KECCAK256 SLOAD PUSH1 0xFF AND DUP2 JUMP JUMPDEST PUSH1 0x0 CALLER PUSH1 0x1 PUSH1 0x1 PUSH1 0xA0 SHL SUB PUSH32 0x0 AND EQ PUSH2 0x402 JUMPI PUSH1 0x40 MLOAD PUSH4 0x1048F7B PUSH1 0xE7 SHL DUP2 MSTORE PUSH1 0x4 ADD PUSH1 0x40 MLOAD DUP1 SWAP2 SUB SWAP1 REVERT JUMPDEST PUSH1 0x0 SLOAD PUSH1 0xFF AND ISZERO PUSH2 0x426 JUMPI PUSH1 0x40 MLOAD PUSH4 0x924B3727 PUSH1 0xE0 SHL DUP2 MSTORE PUSH1 0x4 ADD PUSH1 0x40 MLOAD DUP1 SWAP2 SUB SWAP1 REVERT JUMPDEST PUSH16 0xFFFFFFFFFFFFFFFFFFFFFFFFFFFFFFFF DUP4 LT PUSH2 0x456 JUMPI PUSH1 0x40 MLOAD PUSH4 0x214121F1 PUSH1 0xE1 SHL DUP2 MSTORE PUSH1 0x4 ADD PUSH1 0x40 MLOAD DUP1 SWAP2 SUB SWAP1 REVERT JUMPDEST PUSH1 0x0 PUSH32 0x30644E72E131A029B85045B68181585D2833E84879B9709143E1F593F0000001 PUSH32 0x0 PUSH1 0x1 PUSH1 0x0 DUP2 SLOAD PUSH2 0x4A9 SWAP1 PUSH2 0x116D JUMP JUMPDEST SWAP2 DUP3 SWAP1 SSTORE POP PUSH1 0x40 DUP1 MLOAD PUSH1 0x20 DUP2 ADD SWAP4 SWAP1 SWAP4 MSTORE DUP3 ADD MSTORE PUSH1 0x60 ADD PUSH1 0x40 MLOAD PUSH1 0x20 DUP2 DUP4 SUB SUB DUP2 MSTORE SWAP1 PUSH1 0x40 MSTORE DUP1 MLOAD SWAP1 PUSH1 0x20 ADD KECCAK256 PUSH1 0x0 SHR PUSH2 0x4E3 SWAP2 SWAP1 PUSH2 0x1194 JUMP JUMPDEST PUSH1 0x0 DUP2 DUP2 MSTORE PUSH1 0x2 PUSH1 0x20 SWAP1 DUP2 MSTORE PUSH1 0x40 SWAP2 DUP3 SWAP1 KECCAK256 DUP1 SLOAD PUSH1 0x1 PUSH1 0x1 PUSH1 0xA0 SHL SUB NOT AND PUSH1 0x1 PUSH1 0x1 PUSH1 0xA0 SHL SUB DUP11 AND OR SWAP1 SSTORE DUP2 MLOAD PUSH1 0x60 DUP2 ADD DUP4 MSTORE DUP8 DUP2 MSTORE SWAP1 DUP2 ADD DUP4 SWAP1 MSTORE SWAP1 DUP2 ADD DUP6 SWAP1 MSTORE SWAP1 SWAP2 POP PUSH2 0x531 SWAP1 PUSH2 0xB68 JUMP JUMPDEST SWAP2 POP PUSH2 0x53C DUP3 PUSH2 0xBDB JUMP JUMPDEST PUSH2 0x546 CALLER DUP6 PUSH2 0xC26 JUMP JUMPDEST DUP1 DUP3 DUP7 PUSH1 0x1 PUSH1 0x1 PUSH1 0xA0 SHL SUB AND PUSH32 0xE3B53CD1A44FBF11535E145D80B8EF1ED6D57A73BF5DAA7E939B6B01657D6549 DUP8 DUP8 PUSH1 0x40 MLOAD PUSH2 0x58C SWAP3 SWAP2 SWAP1 SWAP2 DUP3 MSTORE PUSH1 0x20 DUP3 ADD MSTORE PUSH1 0x40 ADD SWAP1 JUMP JUMPDEST PUSH1 0x40 MLOAD DUP1 SWAP2 SUB SWAP1 LOG4 POP SWAP4 SWAP3 POP POP POP JUMP JUMPDEST DUP2 DUP2 DUP2 PUSH1 0x0 ADD MLOAD PUSH1 0x1 PUSH1 0x1 PUSH1 0xA0 SHL SUB AND CALLER PUSH1 0x1 PUSH1 0x1 PUSH1 0xA0 SHL SUB AND EQ PUSH2 0x5D4 JUMPI PUSH1 0x40 MLOAD PUSH4 0x1A7C48E5 PUSH1 0xE0 SHL DUP2 MSTORE PUSH1 0x4 ADD PUSH1 0x40 MLOAD DUP1 SWAP2 SUB SWAP1 REVERT JUMPDEST PUSH32 0x30644E72E131A029B85045B68181585D2833E84879B9709143E1F593F0000001 DUP3 PUSH32 0x0 PUSH1 0x40 MLOAD PUSH1 0x20 ADD PUSH2 0x63B SWAP3 SWAP2 SWAP1 SWAP2 MLOAD PUSH1 0x1 PUSH1 0x1 PUSH1 0xA0 SHL SUB AND DUP3 MSTORE PUSH1 0x20 DUP3 ADD MSTORE PUSH1 0x40 ADD SWAP1 JUMP JUMPDEST PUSH1 0x40 MLOAD PUSH1 0x20 DUP2 DUP4 SUB SUB DUP2 MSTORE SWAP1 PUSH1 0x40 MSTORE DUP1 MLOAD SWAP1 PUSH1 0x20 ADD KECCAK256 PUSH1 0x0 SHR PUSH2 0x65E SWAP2 SWAP1 PUSH2 0x1194 JUMP JUMPDEST PUSH2 0x667 DUP3 PUSH2 0xC77 JUMP JUMPDEST EQ PUSH2 0x685 JUMPI PUSH1 0x40 MLOAD PUSH4 0xEF6DAEB PUSH1 0xE4 SHL DUP2 MSTORE PUSH1 0x4 ADD PUSH1 0x40 MLOAD DUP1 SWAP2 SUB SWAP1 REVERT JUMPDEST PUSH1 0x20 PUSH2 0x690 DUP3 PUSH2 0xC9F JUMP JUMPDEST GT DUP1 PUSH2 0x6A4 JUMPI POP PUSH1 0x20 PUSH2 0x6A2 DUP3 PUSH2 0xCB8 JUMP JUMPDEST GT JUMPDEST ISZERO PUSH2 0x6C2 JUMPI PUSH1 0x40 MLOAD PUSH4 0x610E6471 PUSH1 0xE1 SHL DUP2 MSTORE PUSH1 0x4 ADD PUSH1 0x40 MLOAD DUP1 SWAP2 SUB SWAP1 REVERT JUMPDEST PUSH2 0x6E3 PUSH2 0x6CE DUP3 PUSH2 0xCD1 JUMP JUMPDEST PUSH1 0x0 SWAP1 DUP2 MSTORE PUSH1 0x5 PUSH1 0x20 MSTORE PUSH1 0x40 SWAP1 KECCAK256 SLOAD PUSH1 0xFF AND SWAP1 JUMP JUMPDEST PUSH2 0x700 JUMPI PUSH1 0x40 MLOAD PUSH4 0x3F4F4F13 PUSH1 0xE2 SHL DUP2 MSTORE PUSH1 0x4 ADD PUSH1 0x40 MLOAD DUP1 SWAP2 SUB SWAP1 REVERT JUMPDEST PUSH32 0x0 PUSH1 0x1 PUSH1 0x1 PUSH1 0xA0 SHL SUB AND PUSH4 0xD7B0FEF1 PUSH1 0x40 MLOAD DUP2 PUSH4 0xFFFFFFFF AND PUSH1 0xE0 SHL DUP2 MSTORE PUSH1 0x4 ADD PUSH1 0x20 PUSH1 0x40 MLOAD DUP1 DUP4 SUB DUP2 DUP7 GAS STATICCALL ISZERO DUP1 ISZERO PUSH2 0x75E JUMPI RETURNDATASIZE PUSH1 0x0 DUP1 RETURNDATACOPY RETURNDATASIZE PUSH1 0x0 REVERT JUMPDEST POP POP POP POP PUSH1 0x40 MLOAD RETURNDATASIZE PUSH1 0x1F NOT PUSH1 0x1F DUP3 ADD AND DUP3 ADD DUP1 PUSH1 0x40 MSTORE POP DUP2 ADD SWAP1 PUSH2 0x782 SWAP2 SWAP1 PUSH2 0x11B6 JUMP JUMPDEST PUSH2 0x78B DUP3 PUSH2 0xCEA JUMP JUMPDEST EQ PUSH2 0x7A9 JUMPI PUSH1 0x40 MLOAD PUSH4 0x29A9E091 PUSH1 0xE2 SHL DUP2 MSTORE PUSH1 0x4 ADD PUSH1 0x40 MLOAD DUP1 SWAP2 SUB SWAP1 REVERT JUMPDEST PUSH32 0x0 PUSH1 0x1 PUSH1 0x1 PUSH1 0xA0 SHL SUB AND PUSH4 0xC32E370E DUP5 PUSH1 0x0 ADD MLOAD DUP6 PUSH1 0x20 ADD MLOAD DUP7 PUSH1 0x40 ADD MLOAD DUP8 PUSH1 0x60 ADD MLOAD PUSH1 0x40 MLOAD DUP6 PUSH4 0xFFFFFFFF AND PUSH1 0xE0 SHL DUP2 MSTORE PUSH1 0x4 ADD PUSH2 0x80B SWAP5 SWAP4 SWAP3 SWAP2 SWAP1 PUSH2 0x1234 JUMP JUMPDEST PUSH1 0x20 PUSH1 0x40 MLOAD DUP1 DUP4 SUB DUP2 DUP7 GAS STATICCALL ISZERO DUP1 ISZERO PUSH2 0x828 JUMPI RETURNDATASIZE PUSH1 0x0 DUP1 RETURNDATACOPY RETURNDATASIZE PUSH1 0x0 REVERT JUMPDEST POP POP POP POP PUSH1 0x40 MLOAD RETURNDATASIZE PUSH1 0x1F NOT PUSH1 0x1F DUP3 ADD AND DUP3 ADD DUP1 PUSH1 0x40 MSTORE POP DUP2 ADD SWAP1 PUSH2 0x84C SWAP2 SWAP1 PUSH2 0x12B6 JUMP JUMPDEST PUSH2 0x869 JUMPI PUSH1 0x40 MLOAD PUSH4 0x9BDE339 PUSH1 0xE0 SHL DUP2 MSTORE PUSH1 0x4 ADD PUSH1 0x40 MLOAD DUP1 SWAP2 SUB SWAP1 REVERT JUMPDEST PUSH2 0x87A PUSH2 0x875 DUP5 PUSH2 0xD03 JUMP JUMPDEST PUSH2 0xD1C JUMP JUMPDEST PUSH2 0x88B PUSH2 0x886 DUP5 PUSH2 0xD67 JUMP JUMPDEST PUSH2 0xBDB JUMP JUMPDEST DUP4 MLOAD PUSH2 0x89F SWAP1 PUSH2 0x89A DUP6 PUSH2 0xD80 JUMP JUMPDEST PUSH2 0xD99 JUMP JUMPDEST DUP4 MLOAD PUSH1 0x1 PUSH1 0x1 PUSH1 0xA0 SHL SUB AND PUSH32 0x75E161B3E824B114FC1A33274BD7091918DD4E639CEDE50B78B15A4EEA956A21 PUSH2 0x8D4 DUP6 PUSH2 0xD80 JUMP JUMPDEST PUSH2 0x8DD DUP7 PUSH2 0xD03 JUMP JUMPDEST PUSH2 0x8E6 DUP8 PUSH2 0xD67 JUMP JUMPDEST PUSH1 0x40 DUP1 MLOAD SWAP4 DUP5 MSTORE PUSH1 0x20 DUP5 ADD SWAP3 SWAP1 SWAP3 MSTORE SWAP1 DUP3 ADD MSTORE PUSH1 0x60 ADD PUSH1 0x40 MLOAD DUP1 SWAP2 SUB SWAP1 LOG2 POP POP POP POP JUMP JUMPDEST PUSH1 0x0 PUSH2 0x915 DUP3 PUSH2 0xD80 JUMP JUMPDEST PUSH1 0x0 DUP2 DUP2 MSTORE PUSH1 0x2 PUSH1 0x20 MSTORE PUSH1 0x40 SWAP1 KECCAK256 SLOAD SWAP1 SWAP2 POP PUSH1 0x1 PUSH1 0x1 PUSH1 0xA0 SHL SUB AND CALLER EQ PUSH2 0x94F JUMPI PUSH1 0x40 MLOAD PUSH4 0x1F71C4F PUSH1 0xE3 SHL DUP2 MSTORE PUSH1 0x4 ADD PUSH1 0x40 MLOAD DUP1 SWAP2 SUB SWAP1 REVERT JUMPDEST PUSH32 0x0 PUSH1 0x1 PUSH1 0x1 PUSH1 0xA0 SHL SUB AND PUSH4 0xC32E370E DUP4 PUSH1 0x0 ADD MLOAD DUP5 PUSH1 0x20 ADD MLOAD DUP6 PUSH1 0x40 ADD MLOAD DUP7 PUSH1 0x60 ADD MLOAD PUSH1 0x40 MLOAD DUP6 PUSH4 0xFFFFFFFF AND PUSH1 0xE0 SHL DUP2 MSTORE PUSH1 0x4 ADD PUSH2 0x9B1 SWAP5 SWAP4 SWAP3 SWAP2 SWAP1 PUSH2 0x1234 JUMP JUMPDEST PUSH1 0x20 PUSH1 0x40 MLOAD DUP1 DUP4 SUB DUP2 DUP7 GAS STATICCALL ISZERO DUP1 ISZERO PUSH2 0x9CE JUMPI RETURNDATASIZE PUSH1 0x0 DUP1 RETURNDATACOPY RETURNDATASIZE PUSH1 0x0 REVERT JUMPDEST POP POP POP POP PUSH1 0x40 MLOAD RETURNDATASIZE PUSH1 0x1F NOT PUSH1 0x1F DUP3 ADD AND DUP3 ADD DUP1 PUSH1 0x40 MSTORE POP DUP2 ADD SWAP1 PUSH2 0x9F2 SWAP2 SWAP1 PUSH2 0x12B6 JUMP JUMPDEST PUSH2 0xA0F JUMPI PUSH1 0x40 MLOAD PUSH4 0x9BDE339 PUSH1 0xE0 SHL DUP2 MSTORE PUSH1 0x4 ADD PUSH1 0x40 MLOAD DUP1 SWAP2 SUB SWAP1 REVERT JUMPDEST PUSH2 0xA30 PUSH2 0xA1B DUP4 PUSH2 0xCD1 JUMP JUMPDEST PUSH1 0x0 SWAP1 DUP2 MSTORE PUSH1 0x3 PUSH1 0x20 MSTORE PUSH1 0x40 SWAP1 KECCAK256 SLOAD PUSH1 0xFF AND SWAP1 JUMP JUMPDEST PUSH2 0xA4D JUMPI PUSH1 0x40 MLOAD PUSH4 0x6033C4FD PUSH1 0xE1 SHL DUP2 MSTORE PUSH1 0x4 ADD PUSH1 0x40 MLOAD DUP1 SWAP2 SUB SWAP1 REVERT JUMPDEST PUSH2 0xA59 PUSH2 0x875 DUP4 PUSH2 0xCEA JUMP JUMPDEST PUSH2 0xA66 CALLER PUSH2 0x89A DUP5 PUSH2 0xC9F JUMP JUMPDEST CALLER PUSH32 0xD2B3E868AE101106371F2BD93ABC8D5A4DE488B9FE47ED122C23625AA7172F13 PUSH2 0xA91 DUP5 PUSH2 0xCD1 JUMP JUMPDEST PUSH2 0xA9A DUP6 PUSH2 0xD80 JUMP JUMPDEST PUSH2 0xAA3 DUP7 PUSH2 0xC9F JUMP JUMPDEST PUSH1 0x40 DUP1 MLOAD SWAP4 DUP5 MSTORE PUSH1 0x20 DUP5 ADD SWAP3 SWAP1 SWAP3 MSTORE SWAP1 DUP3 ADD MSTORE PUSH1 0x60 ADD PUSH1 0x40 MLOAD DUP1 SWAP2 SUB SWAP1 LOG2 POP POP JUMP JUMPDEST CALLER PUSH1 0x1 PUSH1 0x1 PUSH1 0xA0 SHL SUB PUSH32 0x0 AND EQ PUSH2 0xB0E JUMPI PUSH1 0x40 MLOAD PUSH4 0x1048F7B PUSH1 0xE7 SHL DUP2 MSTORE PUSH1 0x4 ADD PUSH1 0x40 MLOAD DUP1 SWAP2 SUB SWAP1 REVERT JUMPDEST PUSH1 0x0 SLOAD PUSH1 0xFF AND ISZERO PUSH2 0xB32 JUMPI PUSH1 0x40 MLOAD PUSH4 0x924B3727 PUSH1 0xE0 SHL DUP2 MSTORE PUSH1 0x4 ADD PUSH1 0x40 MLOAD DUP1 SWAP2 SUB SWAP1 REVERT JUMPDEST PUSH1 0x0 DUP1 SLOAD PUSH1 0xFF NOT AND PUSH1 0x1 OR DUP2 SSTORE PUSH1 0x40 MLOAD PUSH32 0xF9DC79D7254099FDF1F86B15C91DEAC3BF8883E4F340EBEF6E3C6B870CC315B3 SWAP2 SWAP1 LOG1 JUMP JUMPDEST DUP1 MLOAD PUSH1 0x20 DUP1 DUP4 ADD MLOAD PUSH1 0x40 DUP1 DUP6 ADD MLOAD DUP2 MLOAD SWAP4 DUP5 ADD SWAP5 SWAP1 SWAP5 MSTORE DUP3 ADD MSTORE PUSH1 0x60 DUP2 ADD SWAP2 SWAP1 SWAP2 MSTORE PUSH1 0x0 SWAP1 PUSH32 0x30644E72E131A029B85045B68181585D2833E84879B9709143E1F593F0000001 SWAP1 PUSH1 0x80 ADD PUSH1 0x40 MLOAD PUSH1 0x20 DUP2 DUP4 SUB SUB DUP2 MSTORE SWAP1 PUSH1 0x40 MSTORE DUP1 MLOAD SWAP1 PUSH1 0x20 ADD KECCAK256 PUSH1 0x0 SHR PUSH2 0xBD5 SWAP2 SWAP1 PUSH2 0x1194 JUMP JUMPDEST SWAP3 SWAP2 POP POP JUMP JUMPDEST PUSH1 0x0 DUP2 DUP2 MSTORE PUSH1 0x3 PUSH1 0x20 MSTORE PUSH1 0x40 SWAP1 KECCAK256 SLOAD PUSH1 0xFF AND ISZERO PUSH2 0xC0B JUMPI PUSH1 0x40 MLOAD PUSH4 0x6033C4FD PUSH1 0xE1 SHL DUP2 MSTORE PUSH1 0x4 ADD PUSH1 0x40 MLOAD DUP1 SWAP2 SUB SWAP1 REVERT JUMPDEST PUSH1 0x0 SWAP1 DUP2 MSTORE PUSH1 0x3 PUSH1 0x20 MSTORE PUSH1 0x40 SWAP1 KECCAK256 DUP1 SLOAD PUSH1 0xFF NOT AND PUSH1 0x1 OR SWAP1 SSTORE JUMP JUMPDEST DUP1 CALLVALUE LT ISZERO PUSH2 0xC73 JUMPI PUSH1 0x40 MLOAD PUSH3 0x461BCD PUSH1 0xE5 SHL DUP2 MSTORE PUSH1 0x20 PUSH1 0x4 DUP3 ADD MSTORE PUSH1 0x15 PUSH1 0x24 DUP3 ADD MSTORE PUSH21 0x125B9CDD59999A58DA595B9D08115512081CD95B9D PUSH1 0x5A SHL PUSH1 0x44 DUP3 ADD MSTORE PUSH1 0x64 ADD JUMPDEST PUSH1 0x40 MLOAD DUP1 SWAP2 SUB SWAP1 REVERT JUMPDEST POP POP JUMP JUMPDEST PUSH1 0x0 DUP2 PUSH1 0x60 ADD MLOAD PUSH1 0x5 DUP2 MLOAD DUP2 LT PUSH2 0xC90 JUMPI PUSH2 0xC90 PUSH2 0x12DF JUMP JUMPDEST PUSH1 0x20 MUL PUSH1 0x20 ADD ADD MLOAD SWAP1 POP SWAP2 SWAP1 POP JUMP JUMPDEST PUSH1 0x0 DUP2 PUSH1 0x60 ADD MLOAD PUSH1 0x2 DUP2 MLOAD DUP2 LT PUSH2 0xC90 JUMPI PUSH2 0xC90 PUSH2 0x12DF JUMP JUMPDEST PUSH1 0x0 DUP2 PUSH1 0x60 ADD MLOAD PUSH1 0x4 DUP2 MLOAD DUP2 LT PUSH2 0xC90 JUMPI PUSH2 0xC90 PUSH2 0x12DF JUMP JUMPDEST PUSH1 0x0 DUP2 PUSH1 0x60 ADD MLOAD PUSH1 0x1 DUP2 MLOAD DUP2 LT PUSH2 0xC90 JUMPI PUSH2 0xC90 PUSH2 0x12DF JUMP JUMPDEST PUSH1 0x0 DUP2 PUSH1 0x60 ADD MLOAD PUSH1 0x3 DUP2 MLOAD DUP2 LT PUSH2 0xC90 JUMPI PUSH2 0xC90 PUSH2 0x12DF JUMP JUMPDEST PUSH1 0x0 DUP2 PUSH1 0x60 ADD MLOAD PUSH1 0x6 DUP2 MLOAD DUP2 LT PUSH2 0xC90 JUMPI PUSH2 0xC90 PUSH2 0x12DF JUMP JUMPDEST PUSH1 0x0 DUP2 DUP2 MSTORE PUSH1 0x4 PUSH1 0x20 MSTORE PUSH1 0x40 SWAP1 KECCAK256 SLOAD PUSH1 0xFF AND ISZERO PUSH2 0xD4C JUMPI PUSH1 0x40 MLOAD PUSH4 0x6033C4FD PUSH1 0xE1 SHL DUP2 MSTORE PUSH1 0x4 ADD PUSH1 0x40 MLOAD DUP1 SWAP2 SUB SWAP1 REVERT JUMPDEST PUSH1 0x0 SWAP1 DUP2 MSTORE PUSH1 0x4 PUSH1 0x20 MSTORE PUSH1 0x40 SWAP1 KECCAK256 DUP1 SLOAD PUSH1 0xFF NOT AND PUSH1 0x1 OR SWAP1 SSTORE JUMP JUMPDEST PUSH1 0x0 DUP2 PUSH1 0x60 ADD MLOAD PUSH1 0x7 DUP2 MLOAD DUP2 LT PUSH2 0xC90 JUMPI PUSH2 0xC90 PUSH2 0x12DF JUMP JUMPDEST PUSH1 0x0 DUP2 PUSH1 0x60 ADD MLOAD PUSH1 0x0 DUP2 MLOAD DUP2 LT PUSH2 0xC90 JUMPI PUSH2 0xC90 PUSH2 0x12DF JUMP JUMPDEST PUSH1 0x0 DUP3 PUSH1 0x1 PUSH1 0x1 PUSH1 0xA0 SHL SUB AND DUP3 PUSH1 0x40 MLOAD PUSH1 0x0 PUSH1 0x40 MLOAD DUP1 DUP4 SUB DUP2 DUP6 DUP8 GAS CALL SWAP3 POP POP POP RETURNDATASIZE DUP1 PUSH1 0x0 DUP2 EQ PUSH2 0xDE6 JUMPI PUSH1 0x40 MLOAD SWAP2 POP PUSH1 0x1F NOT PUSH1 0x3F RETURNDATASIZE ADD AND DUP3 ADD PUSH1 0x40 MSTORE RETURNDATASIZE DUP3 MSTORE RETURNDATASIZE PUSH1 0x0 PUSH1 0x20 DUP5 ADD RETURNDATACOPY PUSH2 0xDEB JUMP JUMPDEST PUSH1 0x60 SWAP2 POP JUMPDEST POP POP SWAP1 POP DUP1 PUSH2 0xE32 JUMPI PUSH1 0x40 MLOAD PUSH3 0x461BCD PUSH1 0xE5 SHL DUP2 MSTORE PUSH1 0x20 PUSH1 0x4 DUP3 ADD MSTORE PUSH1 0x13 PUSH1 0x24 DUP3 ADD MSTORE PUSH19 0x115512081D1C985B9CD9995C8819985A5B1959 PUSH1 0x6A SHL PUSH1 0x44 DUP3 ADD MSTORE PUSH1 0x64 ADD PUSH2 0xC6A JUMP JUMPDEST POP POP POP JUMP JUMPDEST DUP1 CALLDATALOAD PUSH1 0x1 PUSH1 0x1 PUSH1 0xA0 SHL SUB DUP2 AND DUP2 EQ PUSH2 0xE4E JUMPI PUSH1 0x0 DUP1 REVERT JUMPDEST SWAP2 SWAP1 POP JUMP JUMPDEST PUSH1 0x0 DUP1 PUSH1 0x0 PUSH1 0x60 DUP5 DUP7 SUB SLT ISZERO PUSH2 0xE68 JUMPI PUSH1 0x0 DUP1 REVERT JUMPDEST PUSH2 0xE71 DUP5 PUSH2 0xE37 JUMP JUMPDEST SWAP6 PUSH1 0x20 DUP6 ADD CALLDATALOAD SWAP6 POP PUSH1 0x40 SWAP1 SWAP5 ADD CALLDATALOAD SWAP4 SWAP3 POP POP POP JUMP JUMPDEST PUSH4 0x4E487B71 PUSH1 0xE0 SHL PUSH1 0x0 MSTORE PUSH1 0x41 PUSH1 0x4 MSTORE PUSH1 0x24 PUSH1 0x0 REVERT JUMPDEST PUSH1 0x40 MLOAD PUSH1 0x80 DUP2 ADD PUSH8 0xFFFFFFFFFFFFFFFF DUP2 GT DUP3 DUP3 LT OR ISZERO PUSH2 0xEBF JUMPI PUSH2 0xEBF PUSH2 0xE86 JUMP JUMPDEST PUSH1 0x40 MSTORE SWAP1 JUMP JUMPDEST PUSH1 0x40 MLOAD PUSH1 0x1F DUP3 ADD PUSH1 0x1F NOT AND DUP2 ADD PUSH8 0xFFFFFFFFFFFFFFFF DUP2 GT DUP3 DUP3 LT OR ISZERO PUSH2 0xEEE JUMPI PUSH2 0xEEE PUSH2 0xE86 JUMP JUMPDEST PUSH1 0x40 MSTORE SWAP2 SWAP1 POP JUMP JUMPDEST PUSH1 0x0 DUP3 PUSH1 0x1F DUP4 ADD SLT PUSH2 0xF07 JUMPI PUSH1 0x0 DUP1 REVERT JUMPDEST PUSH2 0xF11 PUSH1 0x40 PUSH2 0xEC5 JUMP JUMPDEST DUP1 PUSH1 0x40 DUP5 ADD DUP6 DUP2 GT ISZERO PUSH2 0xF23 JUMPI PUSH1 0x0 DUP1 REVERT JUMPDEST DUP5 JUMPDEST DUP2 DUP2 LT ISZERO PUSH2 0xF3D JUMPI DUP1 CALLDATALOAD DUP5 MSTORE PUSH1 0x20 SWAP4 DUP5 ADD SWAP4 ADD PUSH2 0xF25 JUMP JUMPDEST POP SWAP1 SWAP6 SWAP5 POP POP POP POP POP JUMP JUMPDEST PUSH1 0x0 DUP3 PUSH1 0x1F DUP4 ADD SLT PUSH2 0xF59 JUMPI PUSH1 0x0 DUP1 REVERT JUMPDEST DUP2 CALLDATALOAD PUSH8 0xFFFFFFFFFFFFFFFF DUP2 GT ISZERO PUSH2 0xF73 JUMPI PUSH2 0xF73 PUSH2 0xE86 JUMP JUMPDEST DUP1 PUSH1 0x5 SHL PUSH2 0xF83 PUSH1 0x20 DUP3 ADD PUSH2 0xEC5 JUMP JUMPDEST SWAP2 DUP3 MSTORE PUSH1 0x20 DUP2 DUP6 ADD DUP2 ADD SWAP3 SWAP1 DUP2 ADD SWAP1 DUP7 DUP5 GT ISZERO PUSH2 0xF9F JUMPI PUSH1 0x0 DUP1 REVERT JUMPDEST PUSH1 0x20 DUP7 ADD SWAP3 POP JUMPDEST DUP4 DUP4 LT ISZERO PUSH2 0xFC1 JUMPI DUP3 CALLDATALOAD DUP3 MSTORE PUSH1 0x20 SWAP3 DUP4 ADD SWAP3 SWAP1 SWAP2 ADD SWAP1 PUSH2 0xFA6 JUMP JUMPDEST SWAP7 SWAP6 POP POP POP POP POP POP JUMP JUMPDEST PUSH1 0x0 PUSH2 0x120 DUP3 DUP5 SUB SLT ISZERO PUSH2 0xFDE JUMPI PUSH1 0x0 DUP1 REVERT JUMPDEST PUSH2 0xFE6 PUSH2 0xE9C JUMP JUMPDEST SWAP1 POP PUSH2 0xFF2 DUP4 DUP4 PUSH2 0xEF6 JUMP JUMPDEST DUP2 MSTORE DUP3 PUSH1 0x5F DUP4 ADD SLT PUSH2 0x1003 JUMPI PUSH1 0x0 DUP1 REVERT JUMPDEST PUSH1 0x40 PUSH2 0x100E DUP2 PUSH2 0xEC5 JUMP JUMPDEST DUP1 PUSH1 0xC0 DUP6 ADD DUP7 DUP2 GT ISZERO PUSH2 0x1020 JUMPI PUSH1 0x0 DUP1 REVERT JUMPDEST DUP4 DUP7 ADD JUMPDEST DUP2 DUP2 LT ISZERO PUSH2 0x1045 JUMPI PUSH2 0x1036 DUP9 DUP3 PUSH2 0xEF6 JUMP JUMPDEST DUP5 MSTORE PUSH1 0x20 SWAP1 SWAP4 ADD SWAP3 DUP5 ADD PUSH2 0x1024 JUMP JUMPDEST POP DUP2 PUSH1 0x20 DUP7 ADD MSTORE PUSH2 0x1056 DUP8 DUP3 PUSH2 0xEF6 JUMP JUMPDEST DUP5 DUP7 ADD MSTORE POP POP POP POP PUSH2 0x100 DUP3 ADD CALLDATALOAD PUSH8 0xFFFFFFFFFFFFFFFF DUP2 GT ISZERO PUSH2 0x1079 JUMPI PUSH1 0x0 DUP1 REVERT JUMPDEST PUSH2 0x1085 DUP5 DUP3 DUP6 ADD PUSH2 0xF48 JUMP JUMPDEST PUSH1 0x60 DUP4 ADD MSTORE POP SWAP3 SWAP2 POP POP JUMP JUMPDEST PUSH1 0x0 DUP1 DUP3 DUP5 SUB PUSH1 0x40 DUP2 SLT ISZERO PUSH2 0x10A5 JUMPI PUSH1 0x0 DUP1 REVERT JUMPDEST PUSH1 0x20 DUP2 SLT ISZERO PUSH2 0x10B3 JUMPI PUSH1 0x0 DUP1 REVERT JUMPDEST POP PUSH1 0x40 MLOAD PUSH1 0x20 DUP2 ADD PUSH8 0xFFFFFFFFFFFFFFFF DUP2 GT DUP3 DUP3 LT OR ISZERO PUSH2 0x10D7 JUMPI PUSH2 0x10D7 PUSH2 0xE86 JUMP JUMPDEST PUSH1 0x40 MSTORE PUSH2 0x10E3 DUP5 PUSH2 0xE37 JUMP JUMPDEST DUP2 MSTORE SWAP2 POP PUSH1 0x20 DUP4 ADD CALLDATALOAD PUSH8 0xFFFFFFFFFFFFFFFF DUP2 GT ISZERO PUSH2 0x1101 JUMPI PUSH1 0x0 DUP1 REVERT JUMPDEST PUSH2 0x110D DUP6 DUP3 DUP7 ADD PUSH2 0xFCB JUMP JUMPDEST SWAP2 POP POP SWAP3 POP SWAP3 SWAP1 POP JUMP JUMPDEST PUSH1 0x0 PUSH1 0x20 DUP3 DUP5 SUB SLT ISZERO PUSH2 0x1129 JUMPI PUSH1 0x0 DUP1 REVERT JUMPDEST POP CALLDATALOAD SWAP2 SWAP1 POP JUMP JUMPDEST PUSH1 0x0 PUSH1 0x20 DUP3 DUP5 SUB SLT ISZERO PUSH2 0x1142 JUMPI PUSH1 0x0 DUP1 REVERT JUMPDEST DUP2 CALLDATALOAD PUSH8 0xFFFFFFFFFFFFFFFF DUP2 GT ISZERO PUSH2 0x1159 JUMPI PUSH1 0x0 DUP1 REVERT JUMPDEST PUSH2 0x1165 DUP5 DUP3 DUP6 ADD PUSH2 0xFCB JUMP JUMPDEST SWAP5 SWAP4 POP POP POP POP JUMP JUMPDEST PUSH1 0x0 PUSH1 0x1 DUP3 ADD PUSH2 0x118D JUMPI PUSH4 0x4E487B71 PUSH1 0xE0 SHL PUSH1 0x0 MSTORE PUSH1 0x11 PUSH1 0x4 MSTORE PUSH1 0x24 PUSH1 0x0 REVERT JUMPDEST POP PUSH1 0x1 ADD SWAP1 JUMP JUMPDEST PUSH1 0x0 DUP3 PUSH2 0x11B1 JUMPI PUSH4 0x4E487B71 PUSH1 0xE0 SHL PUSH1 0x0 MSTORE PUSH1 0x12 PUSH1 0x4 MSTORE PUSH1 0x24 PUSH1 0x0 REVERT JUMPDEST POP MOD SWAP1 JUMP JUMPDEST PUSH1 0x0 PUSH1 0x20 DUP3 DUP5 SUB SLT ISZERO PUSH2 0x11C8 JUMPI PUSH1 0x0 DUP1 REVERT JUMPDEST POP MLOAD SWAP2 SWAP1 POP JUMP JUMPDEST DUP1 PUSH1 0x0 JUMPDEST PUSH1 0x2 DUP2 LT ISZERO PUSH2 0x11F2 JUMPI DUP2 MLOAD DUP5 MSTORE PUSH1 0x20 SWAP4 DUP5 ADD SWAP4 SWAP1 SWAP2 ADD SWAP1 PUSH1 0x1 ADD PUSH2 0x11D3 JUMP JUMPDEST POP POP POP POP JUMP JUMPDEST PUSH1 0x0 DUP2 MLOAD DUP1 DUP5 MSTORE PUSH1 0x20 DUP5 ADD SWAP4 POP PUSH1 0x20 DUP4 ADD PUSH1 0x0 JUMPDEST DUP3 DUP2 LT ISZERO PUSH2 0x122A JUMPI DUP2 MLOAD DUP7 MSTORE PUSH1 0x20 SWAP6 DUP7 ADD SWAP6 SWAP1 SWAP2 ADD SWAP1 PUSH1 0x1 ADD PUSH2 0x120C JUMP JUMPDEST POP SWAP4 SWAP5 SWAP4 POP POP POP POP JUMP JUMPDEST PUSH2 0x123E DUP2 DUP7 PUSH2 0x11CF JUMP JUMPDEST PUSH1 0x0 PUSH1 0x40 DUP3 ADD DUP6 PUSH1 0x0 JUMPDEST PUSH1 0x2 DUP2 LT ISZERO PUSH2 0x128F JUMPI DUP2 MLOAD DUP4 PUSH1 0x0 JUMPDEST PUSH1 0x2 DUP2 LT ISZERO PUSH2 0x1276 JUMPI DUP3 MLOAD DUP3 MSTORE PUSH1 0x20 SWAP3 DUP4 ADD SWAP3 SWAP1 SWAP2 ADD SWAP1 PUSH1 0x1 ADD PUSH2 0x1257 JUMP JUMPDEST POP POP POP PUSH1 0x40 SWAP3 SWAP1 SWAP3 ADD SWAP2 PUSH1 0x20 SWAP2 SWAP1 SWAP2 ADD SWAP1 PUSH1 0x1 ADD PUSH2 0x1248 JUMP JUMPDEST POP POP POP PUSH2 0x129F PUSH1 0xC0 DUP4 ADD DUP6 PUSH2 0x11CF JUMP JUMPDEST PUSH2 0x120 PUSH2 0x100 DUP4 ADD MSTORE PUSH2 0xFC1 PUSH2 0x120 DUP4 ADD DUP5 PUSH2 0x11F8 JUMP JUMPDEST PUSH1 0x0 PUSH1 0x20 DUP3 DUP5 SUB SLT ISZERO PUSH2 0x12C8 JUMPI PUSH1 0x0 DUP1 REVERT JUMPDEST DUP2 MLOAD DUP1 ISZERO ISZERO DUP2 EQ PUSH2 0x12D8 JUMPI PUSH1 0x0 DUP1 REVERT JUMPDEST SWAP4 SWAP3 POP POP POP JUMP JUMPDEST PUSH4 0x4E487B71 PUSH1 0xE0 SHL PUSH1 0x0 MSTORE PUSH1 0x32 PUSH1 0x4 MSTORE PUSH1 0x24 PUSH1 0x0 REVERT INVALID LOG2 PUSH5 0x6970667358 0x22 SLT KECCAK256 POP SHL 0xB9 NUMBER 0xC0 0xDB PUSH20 0x4DA749AC84A88181ECB01D576321B42D120CD3E0 0xC3 0xD8 EXTCODEHASH DUP11 0xC2 PUSH5 0x736F6C6343 STOP ADDMOD SHR STOP CALLER "},"methodIdentifiers":{"ASSET()":"4800d97f","ENTRYPOINT()":"e8eb3cc6","MAX_TREE_DEPTH()":"e38df5f0","RAGEQUIT_VERIFIER()":"da662925","SCOPE()":"33d09200","WITHDRAWAL_VERIFIER()":"8735eb2b","commitments(uint256)":"49ce8997","dead()":"36cf7c87","deposit(address,uint256,uint256)":"0efe6a8b","depositors(uint256)":"e4b2fb79","nonce()":"affed0e0","nullifiers(uint256)":"d21e82ab","ragequit((uint256[2],uint256[2][2],uint256[2],uint256[]))":"a4cf2ec4","stateRoots(uint256)":"f4cac30d","windDown()":"b85c5145","withdraw((address),(uint256[2],uint256[2][2],uint256[2],uint256[]))":"2576578c"}}}}}