{"contracts/Entrypoint.sol":{"Entrypoint":{"abi":[{"anonymous":false,"inputs":[{"indexed":true,"internalType":"uint256","name":"root","type":"uint256"}],"name":"RootSubmitted","type":"event"},{"inputs":[],"name":"latestRoot","outputs":[{"internalType":"uint256","name":"","type":"uint256"}],"stateMutability":"view","type":"function"},{"inputs":[{"internalType":"uint256","name":"_root","type":"uint256"}],"name":"submitRoot","outputs":[],"stateMutability":"nonpayable","type":"function"}],"evm":{"bytecode":{"linkReferences":{},"object":"6080604052348015600f57600080fd5b5060e08061001e6000396000f3fe6080604052348015600f57600080fd5b506004361060325760003560e01c8063c61b2e82146037578063d7b0fef1146048575b600080fd5b604660423660046092565b6062565b005b605060005481565b60405190815260200160405180910390f35b600081815560405182917f17d62785f0e8e3298eb88390ddfe5f4c2c0cc090ca6e0df8713ad42d099fb5c891a250565b60006020828403121560a357600080fd5b503591905056fea26469706673582212202ab2f41c970bc037ea32a6d22d30b5d27894520f0f6c9031c21a2219450ce44264736f6c634300081c0033","opcodes":"PUSH1 0x80 PUSH1 0x40 MSTORE CALLVALUE DUP1 ISZERO PUSH1 0xF JUMPI PUSH1 0x0 DUP1 REVERT JUMPDEST POP PUSH1 0xE0 DUP1 PUSH2 0x1E PUSH1 0x0 CODECOPY PUSH1 0x0 RETURN INVALID PUSH1 0x80 PUSH1 0x40 MSTORE CALLVALUE DUP1 ISZERO PUSH1 0xF JUMPI PUSH1 0x0 DUP1 REVERT JUMPDEST POP PUSH1 0x4 CALLDATASIZE LT PUSH1 0x32 JUMPI PUSH1 0x0 CALLDATALOAD PUSH1 0xE0 SHR DUP1 PUSH4 0xC61B2E82 EQ PUSH1 0x37 JUMPI DUP1 PUSH4 0xD7B0FEF1 EQ PUSH1 0x48 JUMPI JUMPDEST PUSH1 0x0 DUP1 REVERT JUMPDEST PUSH1 0x46 PUSH1 0x42 CALLDATASIZE PUSH1 0x4 PUSH1 0x92 JUMP JUMPDEST PUSH1 0x62 JUMP JUMPDEST STOP JUMPDEST PUSH1 0x50 PUSH1 0x0 SLOAD DUP2 JUMP JUMPDEST PUSH1 0x40 MLOAD SWAP1 DUP2 MSTORE PUSH1 0x20 ADD PUSH1 0x40 MLOAD DUP1 SWAP2 SUB SWAP1 RETURN JUMPDEST PUSH1 0x0 DUP2 DUP2 SSTORE PUSH1 0x40 MLOAD DUP3 SWAP2 PUSH32 0x17D62785F0E8E3298EB88390DDFE5F4C2C0CC090CA6E0DF8713AD42D099FB5C8 SWAP2 LOG2 POP JUMP JUMPDEST PUSH1 0x0 PUSH1 0x20 DUP3 DUP5 SUB SLT ISZERO PUSH1 0xA3 JUMPI PUSH1 0x0 DUP1 REVERT JUMPDEST POP CALLDATALOAD SWAP2 SWAP1 POP JUMP INVALID LOG2 PUSH5 0x6970667358 0x22 SLT KECCAK256 0x2A 0xB2 DELEGATECALL SHR SWAP8 SIGNEXTEND 0xC0 CALLDATACOPY 0xEA ORIGIN 0xA6 0xD2 0x2D ADDRESS 0xB5 0xD2 PUSH25 0x94520F0F6C9031C21A2219450CE44264736F6C634300081C00 CALLER "},"methodIdentifiers":{"latestRoot()":"d7b0fef1","submitRoot(uint256)":"c61b2e82"}}}}}