{
  "_format": "hh-sol-artifact-1",
  "contractName": "PrivacyPool",
  "sourceName": "src/contracts/PrivacyPool.sol",
  "abi": [
    {
      "inputs": [],
      "stateMutability": "nonpayable",
      "type": "constructor"
    },
    {
      "inputs": [
        {
          "internalType": "address",
          "name": "owner",
          "type": "address"
        }
      ],
      "name": "OwnableInvalidOwner",
      "type": "error"
    },
    {
      "inputs": [
        {
          "internalType": "address",
          "name": "account",
          "type": "address"
        }
      ],
      "name": "OwnableUnauthorizedAccount",
      "type": "error"
    },
    {
      "inputs": [],
      "name": "ReentrancyGuardReentrantCall",
      "type": "error"
    },
    {
      "anonymous": false,
      "inputs": [
        {
          "indexed": true,
          "internalType": "address",
          "name": "depositor",
          "type": "address"
        },
        {
          "indexed": true,
          "internalType": "bytes32",
          "name": "commitment",
          "type": "bytes32"
        },
        {
          "indexed": false,
          "internalType": "uint256",
          "name": "value",
          "type": "uint256"
        },
        {
          "indexed": false,
          "internalType": "uint256",
          "name": "timestamp",
          "type": "uint256"
        }
      ],
      "name": "Deposited",
      "type": "event"
    },
    {
      "anonymous": false,
      "inputs": [
        {
          "indexed": true,
          "internalType": "bytes32",
          "name": "oldRoot",
          "type": "bytes32"
        },
        {
          "indexed": true,
          "internalType": "bytes32",
          "name": "newRoot",
          "type": "bytes32"
        },
        {
          "indexed": false,
          "internalType": "uint256",
          "name": "timestamp",
          "type": "uint256"
        }
      ],
      "name": "MerkleRootUpdated",
      "type": "event"
    },
    {
      "anonymous": false,
      "inputs": [
        {
          "indexed": true,
          "internalType": "address",
          "name": "previousOwner",
          "type": "address"
        },
        {
          "indexed": true,
          "internalType": "address",
          "name": "newOwner",
          "type": "address"
        }
      ],
      "name": "OwnershipTransferred",
      "type": "event"
    },
    {
      "anonymous": false,
      "inputs": [
        {
          "indexed": true,
          "internalType": "address",
          "name": "recipient",
          "type": "address"
        },
        {
          "indexed": true,
          "internalType": "bytes32",
          "name": "nullifier",
          "type": "bytes32"
        },
        {
          "indexed": false,
          "internalType": "uint256",
          "name": "value",
          "type": "uint256"
        },
        {
          "indexed": false,
          "internalType": "uint256",
          "name": "timestamp",
          "type": "uint256"
        }
      ],
      "name": "Withdrawn",
      "type": "event"
    },
    {
      "inputs": [
        {
          "internalType": "bytes32",
          "name": "",
          "type": "bytes32"
        }
      ],
      "name": "commitments",
      "outputs": [
        {
          "internalType": "bool",
          "name": "",
          "type": "bool"
        }
      ],
      "stateMutability": "view",
      "type": "function"
    },
    {
      "inputs": [
        {
          "internalType": "bytes32",
          "name": "commitment",
          "type": "bytes32"
        }
      ],
      "name": "deposit",
      "outputs": [],
      "stateMutability": "payable",
      "type": "function"
    },
    {
      "inputs": [],
      "name": "deposit",
      "outputs": [],
      "stateMutability": "payable",
      "type": "function"
    },
    {
      "inputs": [],
      "name": "emergencyWithdraw",
      "outputs": [],
      "stateMutability": "nonpayable",
      "type": "function"
    },
    {
      "inputs": [],
      "name": "getBalance",
      "outputs": [
        {
          "internalType": "uint256",
          "name": "",
          "type": "uint256"
        }
      ],
      "stateMutability": "view",
      "type": "function"
    },
    {
      "inputs": [
        {
          "internalType": "address",
          "name": "account",
          "type": "address"
        }
      ],
      "name": "getBalance",
      "outputs": [
        {
          "internalType": "uint256",
          "name": "",
          "type": "uint256"
        }
      ],
      "stateMutability": "view",
      "type": "function"
    },
    {
      "inputs": [
        {
          "internalType": "bytes32",
          "name": "commitment",
          "type": "bytes32"
        }
      ],
      "name": "isCommitmentUsed",
      "outputs": [
        {
          "internalType": "bool",
          "name": "",
          "type": "bool"
        }
      ],
      "stateMutability": "view",
      "type": "function"
    },
    {
      "inputs": [
        {
          "internalType": "bytes32",
          "name": "nullifier",
          "type": "bytes32"
        }
      ],
      "name": "isNullifierUsed",
      "outputs": [
        {
          "internalType": "bool",
          "name": "",
          "type": "bool"
        }
      ],
      "stateMutability": "view",
      "type": "function"
    },
    {
      "inputs": [],
      "name": "merkleRoot",
      "outputs": [
        {
          "internalType": "bytes32",
          "name": "",
          "type": "bytes32"
        }
      ],
      "stateMutability": "view",
      "type": "function"
    },
    {
      "inputs": [
        {
          "internalType": "bytes32",
          "name": "",
          "type": "bytes32"
        }
      ],
      "name": "nullifiers",
      "outputs": [
        {
          "internalType": "bool",
          "name": "",
          "type": "bool"
        }
      ],
      "stateMutability": "view",
      "type": "function"
    },
    {
      "inputs": [],
      "name": "owner",
      "outputs": [
        {
          "internalType": "address",
          "name": "",
          "type": "address"
        }
      ],
      "stateMutability": "view",
      "type": "function"
    },
    {
      "inputs": [],
      "name": "renounceOwnership",
      "outputs": [],
      "stateMutability": "nonpayable",
      "type": "function"
    },
    {
      "inputs": [],
      "name": "totalDeposits",
      "outputs": [
        {
          "internalType": "uint256",
          "name": "",
          "type": "uint256"
        }
      ],
      "stateMutability": "view",
      "type": "function"
    },
    {
      "inputs": [],
      "name": "totalWithdrawals",
      "outputs": [
        {
          "internalType": "uint256",
          "name": "",
          "type": "uint256"
        }
      ],
      "stateMutability": "view",
      "type": "function"
    },
    {
      "inputs": [
        {
          "internalType": "address",
          "name": "newOwner",
          "type": "address"
        }
      ],
      "name": "transferOwnership",
      "outputs": [],
      "stateMutability": "nonpayable",
      "type": "function"
    },
    {
      "inputs": [
        {
          "internalType": "bytes32",
          "name": "nullifier",
          "type": "bytes32"
        },
        {
          "internalType": "address",
          "name": "recipient",
          "type": "address"
        },
        {
          "internalType": "uint256",
          "name": "amount",
          "type": "uint256"
        }
      ],
      "name": "withdraw",
      "outputs": [],
      "stateMutability": "nonpayable",
      "type": "function"
    }
  ],
  "bytecode": "0x608060405234801561001057600080fd5b506001600055338061003c57604051631e4fbdf760e01b81526000600482015260240160405180910390fd5b61004581610086565b5060405170141492559050d657d413d3d317d2539255607a1b602082015260310160408051601f1981840301815291905280516020909101206004556100d8565b600180546001600160a01b038381166001600160a01b0319831681179093556040519116919082907f8be0079c531659141344cd1fd0a4f28419497f9722a3daafe3b4186f6b6457e090600090a35050565b610aba806100e76000396000f3fe6080604052600436106100f35760003560e01c80638da5cb5b1161008a578063d0e30db011610059578063d0e30db01461029e578063db2e21bc146102a6578063f2fde38b146102bb578063f8b2cb4f146102db57600080fd5b80638da5cb5b14610213578063a6fb97d11461023b578063b214faa51461025b578063b61b395c1461026e57600080fd5b806360464627116100c657806360464627146101a0578063715018a6146101b65780637d882097146101cd578063839df945146101e357600080fd5b806312065fe0146100f857806322dc7b4c1461011a5780632997e86b1461015a5780632eb4a7ab1461018a575b600080fd5b34801561010457600080fd5b50475b6040519081526020015b60405180910390f35b34801561012657600080fd5b5061014a61013536600461098c565b60009081526003602052604090205460ff1690565b6040519015158152602001610111565b34801561016657600080fd5b5061014a61017536600461098c565b60036020526000908152604090205460ff1681565b34801561019657600080fd5b5061010760045481565b3480156101ac57600080fd5b5061010760065481565b3480156101c257600080fd5b506101cb6102fc565b005b3480156101d957600080fd5b5061010760055481565b3480156101ef57600080fd5b5061014a6101fe36600461098c565b60026020526000908152604090205460ff1681565b34801561021f57600080fd5b506001546040516001600160a01b039091168152602001610111565b34801561024757600080fd5b506101cb6102563660046109c1565b610310565b6101cb61026936600461098c565b6104e1565b34801561027a57600080fd5b5061014a61028936600461098c565b60009081526002602052604090205460ff1690565b6101cb610652565b3480156102b257600080fd5b506101cb61081d565b3480156102c757600080fd5b506101cb6102d63660046109f6565b6108a8565b3480156102e757600080fd5b506101076102f63660046109f6565b50600090565b6103046108e3565b61030e6000610910565b565b610318610962565b60008381526003602052604090205460ff16156103755760405162461bcd60e51b8152602060048201526016602482015275139d5b1b1a599a595c88185b1c9958591e481d5cd95960521b60448201526064015b60405180910390fd5b600081116103d65760405162461bcd60e51b815260206004820152602860248201527f5769746864726177616c20616d6f756e74206d75737420626520677265617465604482015267072207468616e20360c41b606482015260840161036c565b478111156104265760405162461bcd60e51b815260206004820152601d60248201527f496e73756666696369656e7420636f6e74726163742062616c616e6365000000604482015260640161036c565b6000838152600360205260408120805460ff1916600117905560068054839290610451908490610a18565b90915550506040516001600160a01b0383169082156108fc029083906000818181858888f1935050505015801561048c573d6000803e3d6000fd5b506040805182815242602082015284916001600160a01b038516917f2c2b206b9475386bb995c366956ade2de7bd0e3208dd1fb3833c280929a93005910160405180910390a36104dc6001600055565b505050565b6104e9610962565b600034116105095760405162461bcd60e51b815260040161036c90610a3f565b60008181526002602052604090205460ff16156105685760405162461bcd60e51b815260206004820152601960248201527f436f6d6d69746d656e7420616c72656164792065786973747300000000000000604482015260640161036c565b6000818152600260205260408120805460ff1916600117905560058054349290610593908490610a18565b9091555050600454604080516020810183905290810183905242606082015260800160408051808303601f1901815282825280516020918201206004553483524290830152839133917fcc9c1a7566adfa8bdc9f7a63a106576fec355c6b4f61ce07baad45eaa30560c3910160405180910390a3600454817f4245c4fc9e349a90fcc3b21a800990dd8bbc22ca78480f3a9354e024d627a5e84260405161063c91815260200190565b60405180910390a35061064f6001600055565b50565b61065a610962565b6000341161067a5760405162461bcd60e51b815260040161036c90610a3f565b6040516bffffffffffffffffffffffff193360601b16602082015234603482015242605482015243607482015260009060940160408051601f1981840301815291815281516020928301206000818152600290935291205490915060ff16156107355760405162461bcd60e51b815260206004820152602760248201527f436f6d6d69746d656e7420636f6c6c6973696f6e202d20706c656173652074726044820152663c9030b3b0b4b760c91b606482015260840161036c565b6000818152600260205260408120805460ff1916600117905560058054349290610760908490610a18565b9091555050600454604080516020810183905290810183905242606082015260800160408051808303601f1901815282825280516020918201206004553483524290830152839133917fcc9c1a7566adfa8bdc9f7a63a106576fec355c6b4f61ce07baad45eaa30560c3910160405180910390a3600454817f4245c4fc9e349a90fcc3b21a800990dd8bbc22ca78480f3a9354e024d627a5e84260405161080991815260200190565b60405180910390a3505061030e6001600055565b6108256108e3565b478061086a5760405162461bcd60e51b81526020600482015260146024820152734e6f2066756e647320746f20776974686472617760601b604482015260640161036c565b6001546040516001600160a01b039091169082156108fc029083906000818181858888f193505050501580156108a4573d6000803e3d6000fd5b5050565b6108b06108e3565b6001600160a01b0381166108da57604051631e4fbdf760e01b81526000600482015260240161036c565b61064f81610910565b6001546001600160a01b0316331461030e5760405163118cdaa760e01b815233600482015260240161036c565b600180546001600160a01b038381166001600160a01b0319831681179093556040519116919082907f8be0079c531659141344cd1fd0a4f28419497f9722a3daafe3b4186f6b6457e090600090a35050565b60026000540361098557604051633ee5aeb560e01b815260040160405180910390fd5b6002600055565b60006020828403121561099e57600080fd5b5035919050565b80356001600160a01b03811681146109bc57600080fd5b919050565b6000806000606084860312156109d657600080fd5b833592506109e6602085016109a5565b9150604084013590509250925092565b600060208284031215610a0857600080fd5b610a11826109a5565b9392505050565b80820180821115610a3957634e487b7160e01b600052601160045260246000fd5b92915050565b60208082526025908201527f4465706f73697420616d6f756e74206d75737420626520677265617465722074604082015264068616e20360dc1b60608201526080019056fea264697066735822122052a73f30469dcf5bc9bebbdf2859124f8d0c7212db47cca60207f719fd76291764736f6c63430008140033",
  "linkReferences": {},
  "deployedLinkReferences": {}
}