{
  "_format": "hh-sol-artifact-1",
  "contractName": "Verifier",
  "sourceName": "contracts/Verifier.sol",
  "abi": [
    {
      "inputs": [
        {
          "internalType": "uint256[2]",
          "name": "_pA",
          "type": "uint256[2]"
        },
        {
          "internalType": "uint256[2][2]",
          "name": "_pB",
          "type": "uint256[2][2]"
        },
        {
          "internalType": "uint256[2]",
          "name": "_pC",
          "type": "uint256[2]"
        },
        {
          "internalType": "uint256[]",
          "name": "_pubSignals",
          "type": "uint256[]"
        }
      ],
      "name": "verifyProof",
      "outputs": [
        {
          "internalType": "bool",
          "name": "",
          "type": "bool"
        }
      ],
      "stateMutability": "pure",
      "type": "function"
    }
  ],
  "bytecode": "0x6080604052348015600f57600080fd5b506102698061001f6000396000f3fe608060405234801561001057600080fd5b506004361061002b5760003560e01c8063c32e370e14610030575b600080fd5b61004861003e366004610178565b6001949350505050565b604051901515815260200160405180910390f35b634e487b7160e01b600052604160045260246000fd5b604051601f8201601f1916810167ffffffffffffffff8111828210171561009b5761009b61005c565b604052919050565b600082601f8301126100b457600080fd5b6100be6040610072565b8060408401858111156100d057600080fd5b845b818110156100ea5780358452602093840193016100d2565b509095945050505050565b600082601f83011261010657600080fd5b813567ffffffffffffffff8111156101205761012061005c565b8060051b61013060208201610072565b9182526020818501810192908101908684111561014c57600080fd5b6020860192505b8383101561016e578235825260209283019290910190610153565b9695505050505050565b600080600080610120858703121561018f57600080fd5b61019986866100a3565b935085605f8601126101aa57600080fd5b60406101b581610072565b8060c08801898111156101c757600080fd5b8389015b818110156101ec576101dd8b826100a3565b845260209093019284016101cb565b508196506101fa8a826100a3565b95505050505061010085013567ffffffffffffffff81111561021b57600080fd5b610227878288016100f5565b9150509295919450925056fea26469706673582212207aebc78abe2a3d779af4f98f0c00150dcedab9a1b2186aa7baf7844ef319246d64736f6c634300081c0033",
  "linkReferences": {},
  "deployedLinkReferences": {}
}