{
  "_format": "hh-sol-artifact-1",
  "contractName": "PrivacyPoolFixed",
  "sourceName": "src/contracts/PrivacyPoolFixed.sol",
  "abi": [
    {
      "inputs": [],
      "stateMutability": "nonpayable",
      "type": "constructor"
    },
    {
      "inputs": [
        {
          "internalType": "address",
          "name": "owner",
          "type": "address"
        }
      ],
      "name": "OwnableInvalidOwner",
      "type": "error"
    },
    {
      "inputs": [
        {
          "internalType": "address",
          "name": "account",
          "type": "address"
        }
      ],
      "name": "OwnableUnauthorizedAccount",
      "type": "error"
    },
    {
      "inputs": [],
      "name": "ReentrancyGuardReentrantCall",
      "type": "error"
    },
    {
      "anonymous": false,
      "inputs": [
        {
          "indexed": true,
          "internalType": "address",
          "name": "depositor",
          "type": "address"
        },
        {
          "indexed": true,
          "internalType": "bytes32",
          "name": "commitment",
          "type": "bytes32"
        },
        {
          "indexed": false,
          "internalType": "uint256",
          "name": "value",
          "type": "uint256"
        },
        {
          "indexed": false,
          "internalType": "uint256",
          "name": "timestamp",
          "type": "uint256"
        }
      ],
      "name": "Deposited",
      "type": "event"
    },
    {
      "anonymous": false,
      "inputs": [
        {
          "indexed": true,
          "internalType": "bytes32",
          "name": "oldRoot",
          "type": "bytes32"
        },
        {
          "indexed": true,
          "internalType": "bytes32",
          "name": "newRoot",
          "type": "bytes32"
        },
        {
          "indexed": false,
          "internalType": "uint256",
          "name": "timestamp",
          "type": "uint256"
        }
      ],
      "name": "MerkleRootUpdated",
      "type": "event"
    },
    {
      "anonymous": false,
      "inputs": [
        {
          "indexed": true,
          "internalType": "address",
          "name": "previousOwner",
          "type": "address"
        },
        {
          "indexed": true,
          "internalType": "address",
          "name": "newOwner",
          "type": "address"
        }
      ],
      "name": "OwnershipTransferred",
      "type": "event"
    },
    {
      "anonymous": false,
      "inputs": [
        {
          "indexed": true,
          "internalType": "address",
          "name": "recipient",
          "type": "address"
        },
        {
          "indexed": true,
          "internalType": "bytes32",
          "name": "nullifier",
          "type": "bytes32"
        },
        {
          "indexed": false,
          "internalType": "uint256",
          "name": "value",
          "type": "uint256"
        },
        {
          "indexed": false,
          "internalType": "uint256",
          "name": "timestamp",
          "type": "uint256"
        }
      ],
      "name": "Withdrawn",
      "type": "event"
    },
    {
      "inputs": [
        {
          "internalType": "bytes32",
          "name": "",
          "type": "bytes32"
        }
      ],
      "name": "commitments",
      "outputs": [
        {
          "internalType": "bool",
          "name": "",
          "type": "bool"
        }
      ],
      "stateMutability": "view",
      "type": "function"
    },
    {
      "inputs": [],
      "name": "depositAuto",
      "outputs": [],
      "stateMutability": "payable",
      "type": "function"
    },
    {
      "inputs": [
        {
          "internalType": "bytes32",
          "name": "commitment",
          "type": "bytes32"
        }
      ],
      "name": "depositWithCommitment",
      "outputs": [],
      "stateMutability": "payable",
      "type": "function"
    },
    {
      "inputs": [],
      "name": "emergencyWithdraw",
      "outputs": [],
      "stateMutability": "nonpayable",
      "type": "function"
    },
    {
      "inputs": [],
      "name": "getContractBalance",
      "outputs": [
        {
          "internalType": "uint256",
          "name": "",
          "type": "uint256"
        }
      ],
      "stateMutability": "view",
      "type": "function"
    },
    {
      "inputs": [],
      "name": "getCurrentMerkleRoot",
      "outputs": [
        {
          "internalType": "bytes32",
          "name": "",
          "type": "bytes32"
        }
      ],
      "stateMutability": "view",
      "type": "function"
    },
    {
      "inputs": [],
      "name": "getTotalDeposits",
      "outputs": [
        {
          "internalType": "uint256",
          "name": "",
          "type": "uint256"
        }
      ],
      "stateMutability": "view",
      "type": "function"
    },
    {
      "inputs": [],
      "name": "getTotalWithdrawals",
      "outputs": [
        {
          "internalType": "uint256",
          "name": "",
          "type": "uint256"
        }
      ],
      "stateMutability": "view",
      "type": "function"
    },
    {
      "inputs": [
        {
          "internalType": "address",
          "name": "account",
          "type": "address"
        }
      ],
      "name": "getUserBalance",
      "outputs": [
        {
          "internalType": "uint256",
          "name": "",
          "type": "uint256"
        }
      ],
      "stateMutability": "view",
      "type": "function"
    },
    {
      "inputs": [
        {
          "internalType": "bytes32",
          "name": "commitment",
          "type": "bytes32"
        }
      ],
      "name": "isCommitmentUsed",
      "outputs": [
        {
          "internalType": "bool",
          "name": "",
          "type": "bool"
        }
      ],
      "stateMutability": "view",
      "type": "function"
    },
    {
      "inputs": [
        {
          "internalType": "bytes32",
          "name": "nullifier",
          "type": "bytes32"
        }
      ],
      "name": "isNullifierUsed",
      "outputs": [
        {
          "internalType": "bool",
          "name": "",
          "type": "bool"
        }
      ],
      "stateMutability": "view",
      "type": "function"
    },
    {
      "inputs": [],
      "name": "merkleRoot",
      "outputs": [
        {
          "internalType": "bytes32",
          "name": "",
          "type": "bytes32"
        }
      ],
      "stateMutability": "view",
      "type": "function"
    },
    {
      "inputs": [
        {
          "internalType": "bytes32",
          "name": "",
          "type": "bytes32"
        }
      ],
      "name": "nullifiers",
      "outputs": [
        {
          "internalType": "bool",
          "name": "",
          "type": "bool"
        }
      ],
      "stateMutability": "view",
      "type": "function"
    },
    {
      "inputs": [],
      "name": "owner",
      "outputs": [
        {
          "internalType": "address",
          "name": "",
          "type": "address"
        }
      ],
      "stateMutability": "view",
      "type": "function"
    },
    {
      "inputs": [
        {
          "internalType": "address",
          "name": "depositor",
          "type": "address"
        },
        {
          "internalType": "uint256",
          "name": "amount",
          "type": "uint256"
        }
      ],
      "name": "previewCommitment",
      "outputs": [
        {
          "internalType": "bytes32",
          "name": "",
          "type": "bytes32"
        }
      ],
      "stateMutability": "view",
      "type": "function"
    },
    {
      "inputs": [],
      "name": "renounceOwnership",
      "outputs": [],
      "stateMutability": "nonpayable",
      "type": "function"
    },
    {
      "inputs": [],
      "name": "totalDeposits",
      "outputs": [
        {
          "internalType": "uint256",
          "name": "",
          "type": "uint256"
        }
      ],
      "stateMutability": "view",
      "type": "function"
    },
    {
      "inputs": [],
      "name": "totalWithdrawals",
      "outputs": [
        {
          "internalType": "uint256",
          "name": "",
          "type": "uint256"
        }
      ],
      "stateMutability": "view",
      "type": "function"
    },
    {
      "inputs": [
        {
          "internalType": "address",
          "name": "newOwner",
          "type": "address"
        }
      ],
      "name": "transferOwnership",
      "outputs": [],
      "stateMutability": "nonpayable",
      "type": "function"
    },
    {
      "inputs": [
        {
          "internalType": "bytes32",
          "name": "nullifier",
          "type": "bytes32"
        },
        {
          "internalType": "address",
          "name": "recipient",
          "type": "address"
        },
        {
          "internalType": "uint256",
          "name": "amount",
          "type": "uint256"
        }
      ],
      "name": "withdraw",
      "outputs": [],
      "stateMutability": "nonpayable",
      "type": "function"
    }
  ],
  "bytecode": "0x608060405234801561001057600080fd5b506001600055338061003c57604051631e4fbdf760e01b81526000600482015260240160405180910390fd5b61004581610086565b5060405170141492559050d657d413d3d317d2539255607a1b602082015260310160408051601f1981840301815291905280516020909101206004556100d8565b600180546001600160a01b038381166001600160a01b0319831681179093556040519116919082907f8be0079c531659141344cd1fd0a4f28419497f9722a3daafe3b4186f6b6457e090600090a35050565b610bf7806100e76000396000f3fe60806040526004361061011f5760003560e01c8063715018a6116100a0578063a6fb97d111610064578063a6fb97d1146102fa578063b61b395c1461031a578063cd5de2c21461034a578063db2e21bc14610352578063f2fde38b1461036757600080fd5b8063715018a61461026257806375f477a2146102775780637d8820971461028c578063839df945146102a25780638da5cb5b146102d257600080fd5b806347734892116100e757806347734892146101ee5780634b7f1d811461020f578063604646271461022457806362dd9ba21461023a5780636f9fb98a1461024f57600080fd5b8063168a48221461012457806322dc7b4c146101485780632997e86b1461018857806329bd4e15146101b85780632eb4a7ab146101d8575b600080fd5b34801561013057600080fd5b506005545b6040519081526020015b60405180910390f35b34801561015457600080fd5b50610178610163366004610a53565b60009081526003602052604090205460ff1690565b604051901515815260200161013f565b34801561019457600080fd5b506101786101a3366004610a53565b60036020526000908152604090205460ff1681565b3480156101c457600080fd5b506101356101d3366004610a88565b610387565b3480156101e457600080fd5b5061013560045481565b3480156101fa57600080fd5b50610135610209366004610ab2565b50600090565b34801561021b57600080fd5b50600654610135565b34801561023057600080fd5b5061013560065481565b61024d610248366004610a53565b6103cc565b005b34801561025b57600080fd5b5047610135565b34801561026e57600080fd5b5061024d610546565b34801561028357600080fd5b50600454610135565b34801561029857600080fd5b5061013560055481565b3480156102ae57600080fd5b506101786102bd366004610a53565b60026020526000908152604090205460ff1681565b3480156102de57600080fd5b506001546040516001600160a01b03909116815260200161013f565b34801561030657600080fd5b5061024d610315366004610ad4565b61055a565b34801561032657600080fd5b50610178610335366004610a53565b60009081526002602052604090205460ff1690565b61024d610726565b34801561035e57600080fd5b5061024d6108e4565b34801561037357600080fd5b5061024d610382366004610ab2565b61096f565b600082824243610398600182610b1f565b406040516020016103ad959493929190610b32565b6040516020818303038152906040528051906020012090505b92915050565b6103d46109aa565b600034116103fd5760405162461bcd60e51b81526004016103f490610b69565b60405180910390fd5b60008181526002602052604090205460ff161561045c5760405162461bcd60e51b815260206004820152601960248201527f436f6d6d69746d656e7420616c7265616479206578697374730000000000000060448201526064016103f4565b6000818152600260205260408120805460ff1916600117905560058054349290610487908490610bae565b9091555050600454604080516020810183905290810183905242606082015260800160408051808303601f1901815282825280516020918201206004553483524290830152839133917fcc9c1a7566adfa8bdc9f7a63a106576fec355c6b4f61ce07baad45eaa30560c3910160405180910390a3600454817f4245c4fc9e349a90fcc3b21a800990dd8bbc22ca78480f3a9354e024d627a5e84260405161053091815260200190565b60405180910390a3506105436001600055565b50565b61054e6109d4565b6105586000610a01565b565b6105626109aa565b60008381526003602052604090205460ff16156105ba5760405162461bcd60e51b8152602060048201526016602482015275139d5b1b1a599a595c88185b1c9958591e481d5cd95960521b60448201526064016103f4565b6000811161061b5760405162461bcd60e51b815260206004820152602860248201527f5769746864726177616c20616d6f756e74206d75737420626520677265617465604482015267072207468616e20360c41b60648201526084016103f4565b4781111561066b5760405162461bcd60e51b815260206004820152601d60248201527f496e73756666696369656e7420636f6e74726163742062616c616e636500000060448201526064016103f4565b6000838152600360205260408120805460ff1916600117905560068054839290610696908490610bae565b90915550506040516001600160a01b0383169082156108fc029083906000818181858888f193505050501580156106d1573d6000803e3d6000fd5b506040805182815242602082015284916001600160a01b038516917f2c2b206b9475386bb995c366956ade2de7bd0e3208dd1fb3833c280929a93005910160405180910390a36107216001600055565b505050565b61072e6109aa565b6000341161074e5760405162461bcd60e51b81526004016103f490610b69565b60003334424361075f600182610b1f565b40604051602001610774959493929190610b32565b60408051601f1981840301815291815281516020928301206000818152600290935291205490915060ff16156107fc5760405162461bcd60e51b815260206004820152602760248201527f436f6d6d69746d656e7420636f6c6c6973696f6e202d20706c656173652074726044820152663c9030b3b0b4b760c91b60648201526084016103f4565b6000818152600260205260408120805460ff1916600117905560058054349290610827908490610bae565b9091555050600454604080516020810183905290810183905242606082015260800160408051808303601f1901815282825280516020918201206004553483524290830152839133917fcc9c1a7566adfa8bdc9f7a63a106576fec355c6b4f61ce07baad45eaa30560c3910160405180910390a3600454817f4245c4fc9e349a90fcc3b21a800990dd8bbc22ca78480f3a9354e024d627a5e8426040516108d091815260200190565b60405180910390a350506105586001600055565b6108ec6109d4565b47806109315760405162461bcd60e51b81526020600482015260146024820152734e6f2066756e647320746f20776974686472617760601b60448201526064016103f4565b6001546040516001600160a01b039091169082156108fc029083906000818181858888f1935050505015801561096b573d6000803e3d6000fd5b5050565b6109776109d4565b6001600160a01b0381166109a157604051631e4fbdf760e01b8152600060048201526024016103f4565b61054381610a01565b6002600054036109cd57604051633ee5aeb560e01b815260040160405180910390fd5b6002600055565b6001546001600160a01b031633146105585760405163118cdaa760e01b81523360048201526024016103f4565b600180546001600160a01b038381166001600160a01b0319831681179093556040519116919082907f8be0079c531659141344cd1fd0a4f28419497f9722a3daafe3b4186f6b6457e090600090a35050565b600060208284031215610a6557600080fd5b5035919050565b80356001600160a01b0381168114610a8357600080fd5b919050565b60008060408385031215610a9b57600080fd5b610aa483610a6c565b946020939093013593505050565b600060208284031215610ac457600080fd5b610acd82610a6c565b9392505050565b600080600060608486031215610ae957600080fd5b83359250610af960208501610a6c565b9150604084013590509250925092565b634e487b7160e01b600052601160045260246000fd5b818103818111156103c6576103c6610b09565b60609590951b6bffffffffffffffffffffffff19168552601485019390935260348401919091526054830152607482015260940190565b60208082526025908201527f4465706f73697420616d6f756e74206d75737420626520677265617465722074604082015264068616e20360dc1b606082015260800190565b808201808211156103c6576103c6610b0956fea264697066735822122056940c2192adcadd682b48064ab65925e7ccc5e3fd4e08a8fa6d79799e609abf64736f6c63430008140033",
  "linkReferences": {},
  "deployedLinkReferences": {}
}